:020000040800F2
:1000000000000220E12C0008A52C0008A72C000805
:10001000A92C0008AB2C0008AD2C00080000000043
:10002000000000000000000000000000AF2C0008ED
:10003000B12C000800000000B32C0008B52C00080B
:10004000312D0008312D0008312D0008312D000818
:10005000312D0008312D0008312D0008312D000808
:10006000312D0008312D0008312D0008312D0008F8
:10007000312D0008312D0008312D0008312D0008E8
:10008000B92C0008312D0008312D0008312D000851
:10009000312D0008312D0008312D0008312D0008C8
:1000A000312D0008312D0008312D0008312D0008B8
:1000B000312D0008312D0008312D0008312D0008A8
:1000C000312D0008312D0008312D0008312D000898
:1000D000312D0008312D0008312D0008312D000888
:1000E000312D0008312D0008312D0008312D000878
:1000F000312D0008312D0008312D0008312D000868
:10010000312D0008312D0008312D0008312D000857
:10011000312D0008312D0008312D0008312D000847
:10012000312D0008312D0008312D0008312D000837
:10013000312D0008312D0008312D0008312D000827
:10014000312D0008312D0008312D0008312D000817
:10015000312D0008312D0008312D0008312D000807
:10016000312D0008312D0008312D0008312D0008F7
:10017000312D0008312D0008312D0008000000004D
:08018000312D0008312D0008AB
:1001880010B5054C237833B9044B13B10448AFF3C9
:1001980000800123237010BD0C0000200000000027
:1001A8008C2D000808B5034B1BB103490348AFF376
:1001B800008008BD00000000100000208C2D000801
:1001C80053B94AB9002908BF00281CBF4FF0FF31B6
:1001D8004FF0FF3000F072B9ADF1080C6DE904CEB4
:1001E80000F006F8DDF804E0DDE9022304B070470A
:1001F8002DE9F047089E04468846002B4BD18A42D9
:10020800154667D9B2FA82F24AB1C2F1200701FA5B
:1002180002F320FA07F7954047EA030894404FEAAB
:10022800154E230CB8FBFEF71FFA85FC0EFB17884A
:1002380043EA084307FB0CF1994209D9EB1807F187
:10024800FF3080F01B81994240F21881023F2B4415
:100258005B1AA4B2B3FBFEF00EFB103344EA03446E
:1002680000FB0CFCA44509D92C1900F1FF3380F0E0
:100278000781A44540F2048102382C4440EA074033
:10028800A4EB0C0400271EB1D4400023C6E90043A8
:100298003946BDE8F0878B4209D9002E00F0EB8083
:1002A8000027C6E9000138463946BDE8F087B3FAA9
:1002B80083F7002F47D18B4202D3824200F2FA80A3
:1002C800841A61EB030301209846002EE0D0C6E9AA
:1002D8000048DDE702B9FFDEB2FA82F2002A40F0F8
:1002E8008F80491B4FEA154E1FFA85F80127B1FB8D
:1002F800FEFC230C0EFB1C1143EA014308FB0CF126
:10030800994207D9EB180CF1FF3002D2994200F25A
:10031800CD808446591AA3B2B1FBFEF00EFB10142F
:1003280043EA044408FB00F8A04507D92C1900F15A
:10033800FF3302D2A04500F2B6801846A4EB0804A9
:1003480040EA0C409FE7C7F1200CBB4022FA0CFEA4
:100358004EEA030E01FA07F420FA0CF521FA0CF321
:100368004FEA1E482543B3FBF8F92C0C08FB193358
:100378001FFA8EFA44EA034309FB0AF49C4202FA84
:1003880007F200FA07F10BD91EEB030309F1FF305E
:1003980080F087809C4240F28480A9F1020973446E
:1003A8001B1BADB2B3FBF8F008FB103345EA03445E
:1003B80000FB0AFAA24508D91EEB040400F1FF333A
:1003C8006BD2A24569D90238744440EA0940A0FBBF
:1003D8000289A4EB0A044C45C2464B4654D351D07B
:1003E800002E69D0B1EB0A0564EB030404FA0CFC97
:1003F800FD40FC404CEA0505C6E90054002747E7E4
:10040800C2F1200320FA03F7954001FA02F021FA1D
:1004180003F34FEA154E3843010CB3FBFEF71FFAFE
:1004280085F80EFB173341EA034107FB08F38B42BB
:1004380004FA02F407D9691807F1FF3C2FD28B425E
:100448002DD9023F2944CB1A81B2B3FBFEF00EFB33
:10045800103341EA034100FB08F38B4207D96918BE
:1004680000F1FF3C17D28B4215D902382944C91A2A
:1004780040EA07473BE73746304609E70746E7E6DD
:100488001846FBE64145ABD2B8EB020A69EB0E020F
:1004980001381346A4E76046E9E7184695E767463A
:1004A800D1E781467CE702382C4447E7ACF1020CDF
:1004B8002B442FE7384608E73746E9E6704700BF80
:1004C80038B50E4A0E4B054618784FF47A73B3FBCD
:1004D800F0F31068B0FBF3F000F096F8044658B952
:1004E8000F2D09D8024629464FF0FF3000F04AF890
:1004F800044B20461D6038BD0120FCE708000020A1
:10050800000000200400002008B50B4B1A6842F4D4
:1005180000721A601A6842F480621A601A6842F41B
:1005280080721A60032000F01BF80020FFF7C8FF54
:1005380002F0AEFA002008BD003C0240034A044B1A
:1005480011681B780B441360704700BF2800002017
:1005580000000020014B1868704700BF28000020E9
:10056800074AD36823F4E0631B041B0C43F0BF6302
:10057800000243F4003300F4E0600343D3607047A3
:1005880000ED00E0174B70B5DC68C4F30224C4F139
:100598000705042D04F1040328BF04254FF0FF3696
:1005A800062B06FA05F38CBF033C002421EA03035B
:1005B800A34006FA04F422EA0404002843EA0403E8
:1005C800A8BF00F160404FEA0313BCBF00F00F0062
:1005D800054ADBB2AABF00F56140135480F8003326
:1005E80070BD00BF00ED00E014ED00E0002808DB5E
:1005F8004209012300F01F0003FA00F0014B43F801
:100608002200704700E100E00138B0F1807F0AD293
:10061800064B074A5860F02182F823100020072271
:1006280098601A6070470120704700BF10E000E032
:1006380000ED00E00368DAB223F47F7323F00303CC
:100648001821103AB2FBF1F20449032A88BF043397
:10065800895C8365C165806D704700BFA42D000863
:1006680070B50446FFF776FF0546002C71D00023CD
:1006780084F834302268022384F83530136823F074
:100688000103136021680B68D8073CD40B68324D0E
:10069800A0691D40D4E901231343E268134322698A
:1006A800134362691343E26903431343226A134302
:1006B800626A042A43EA050302BFD4E90B563543AC
:1006C8002B430B604B69042A23F0070343EA020318
:1006D8000BD1A26AE56A13433DB1F8B9012A2DD0BE
:1006E80001D3022A01D1EA012BD44B612046FFF73E
:1006F800A1FFE26D3F2393408360002001236065E2
:1007080084F8353009E0FFF725FF401B0528B9D9E3
:1007180020236365032084F8350070BDB0F5005FC1
:1007280013D1032AE1D801A050F822F04B070008A2
:10073800EF0600084B07000845070008B5F1C07F21
:10074800D3D1402363650120E5E7022AF9D9032ABA
:10075800C8E70120E1E700BF3F8010F070B590F8CE
:100768003440012C32D0012480F8344090F83540D0
:10077800866D012C4FF000054FF0020424D180F85B
:10078800354004684565256825F480252560636043
:100798008368402B0EBFA260A160E260C26D08BFF3
:1007A800E1603F239340B360236843F0160323605E
:1007B800036C1BB1236843F008032360236843F0EC
:1007C80001032360002070BD80F834500220FAE74E
:1007D800F7B5002301935C4B856D1F68C36D2E68C8
:1007E80008229A40324204460CD001680868400743
:1007F80008D5086820F004000860AA60626D42F01D
:100808000102626501229A40324208D02168496992
:10081800090641BFAA60626D42F0020262650422C5
:100828009A40324208D021680968880741BFAA6007
:10083800626D42F00402626510229A40324210D082
:100848002368196809070CD5AA601A68500337D5B8
:100858001B68190301D4236C00E0A36C0BB120467C
:100868009847E16D20228A4032423AD023681868BE
:10087800C60636D5AA6094F83520052A1A6827D105
:1008880022F016021A605A6922F080025A61226C1C
:100898000AB9A26C1AB11A6822F008021A603F233A
:1008A8008B40AB60002384F83430012384F8353062
:1008B800236D002B45D0204603B0BDE8F040184713
:1008C8001A68D2055EBF1A6822F008021A60C2E7E9
:1008D800500327D51B68190331D4636C0BB120462C
:1008E8009847636D6BB3636DDA0719D505232268E2
:1008F80084F83530136823F0010313604FF416535E
:10090800B7FBF3F7019B0133BB42019302D813688D
:10091800DB07F7D4002384F83430012384F835301A
:10092800E36CC6E71A6812F4807208D1196821F0DE
:1009380010011960012384F8342084F83530E36B02
:10094800CCE703B0F0BD00BF080000202DE9F04F50
:1009580085B00B68DFF8AC81684ADFF8AC91019389
:1009680000230124019D9C402540AC4240F0B0800A
:100978004C6824F0100C4FEA430E03260CF1FF37A5
:1009880006FA0EF6012F6FEA060611D8876807EAFD
:10099800060ACF6807FA0EF747EA0A07876047682A
:1009A80027EA050AC4F300179F4047EA0A07476089
:1009B800C76807EA060A8F6807FA0EF747EA0A07C0
:1009C800BCF1020FC76016D14FEAD30A00EB8A0ABE
:1009D80003F0070BDAF820704FEA8B0B4FF00F0C7F
:1009E8000CFA0BFC27EA0C0C0F6907FA0BF747EA1D
:1009F8000C07CAF8207007683E4004F0030707FA9E
:100A08000EFE4EEA06060660E60061D54FF0000BC2
:100A1800CDF80CB0D8F84470394E47F48047C8F880
:100A28004470D8F8447007F480470397039F23F075
:100A3800030707F1804707F59C3703F0030ED7F843
:100A480008A04FEA8E0E4FF00F0C0CFA0EFCB042C5
:100A58002AEA0C0C43D006F58066B04241D006F570
:100A68008066B0423FD006F58066B0423DD006F5BC
:100A78008066B0423BD048453BD006F50066B042A0
:100A880039D006F58066B04214BF0826072606FA54
:100A98000EF646EA0C06BE601668EF4314F4803F73
:100AA8000CBF3E402E431660566814F4003F0CBF3E
:100AB8003E402E435660966814F4801F0CBF3E409B
:100AC8002E439660D668A40254BF3E402E43D6609B
:100AD8000133102B7FF445AF05B0BDE8F08F5E46BB
:100AE800D5E70126D3E70226D1E70326CFE7042678
:100AF800CDE70526CBE70626C9E700BF003C014045
:100B08000000024000380240001402400AB181612E
:100B180070470904FBE701684B6913F480634FF0E1
:100B2800000210D06FF480634B612023026380F8C9
:100B38003D3080F83E20036C80F83C2043F00403ED
:100B4800036401207047184670472DE9F0410446B8
:100B5800164698468FB22568686937EA000017D0AC
:100B68006B695A0516D52B6843F400732B606FF434
:100B780080636B6120220023236384F83D2084F87E
:100B88003E30226C42F00402226484F83C3001209A
:100B9800BDE8F081731CDFD0FFF7DCFCA0EB080098
:100BA800B04201D8002ED6D100232022236384F836
:100BB8003D2084F83E30226C42F02002E4E770B514
:100BC80004460D46164623685B695B0701D500207D
:100BD80070BD2046FFF79FFFA8B96A1CF3D0FFF746
:100BE800B9FC801BA84201D8002DECD1002320229B
:100BF800236384F83D2084F83E30226C84F83C302E
:100C080042F0200222640120E2E770B504460D4656
:100C180016462068436913F0400301D0002010E015
:100C28004269D2060ED56FF010024261202223637A
:100C380084F83D2084F83E30226C226484F83C30ED
:100C4800012070BDFFF786FC801BA84201D8002D4B
:100C5800DFD100232022236384F83D2084F83E302E
:100C6800226C42F02002E8E72DE9F843089E04468A
:100C780090461F464FEA11498DB22168B9F1010F1C
:100C88000CBF4B698B6935EA03030CBF01230023B2
:100C9800984501D0002016E07B1CEFD0FFF75AFCE6
:100CA800801BB84201D8002FE7D1002320222363FC
:100CB80084F83D2084F83E30226C84F83C3042F0C1
:100CC800200222640120BDE8F88370B504460D4671
:100CD800164623685B691B0601D5002070BD2046B7
:100CE800FFF719FFA8B96A1CF3D0FFF733FC801B84
:100CF800A84201D8002DECD100232022236384F8D8
:100D08003D2084F83E30226C84F83C3042F02002CA
:100D180022640120E2E7000070B5044608B901200A
:100D280070BD90F83D3003F0FF021BB980F83C20FD
:100D380001F0CCFE242384F83D3023681A6822F0A1
:100D480001021A601A6842F400421A601A6822F412
:100D580000421A6001F0C6F86368414A93424DD8D0
:100D6800404A9042DBD922683F495568B0FBF1F10F
:100D780025F03F050D435560156A25F03F05013103
:100D880029431162D169364D21F44F41AB4221F01C
:100D9800FF0100F1FF3048D85B00B0FBF3F0431CC3
:100DA800C3F30B03042B38BF04230B43D361D4E9EB
:100DB80007301168034321F0C0010B4313609168A9
:100DC800D4E9030321F40341034321F0FF010B435A
:100DD8009360D4E90530D168034321F0FF010B4348
:100DE800D360136843F001031360002020232064BC
:100DF80084F83D30206384F83E0091E71B4A904216
:100E08008DD92268184E5568B0FBF6F625F03F05D7
:100E180035435560156A4FF49671714325F03F05C7
:100E28004FF47A76B1FBF6F1A9E7A56855B903EB5B
:100E38004303B0FBF3F0431CC3F30B036BB143F460
:100E48000043B2E719256B43B0FBF3F0431CC3F32F
:100E58000B0313B143F44043A7E70123A5E700BF01
:100E6800A08601007F841E0040420F00FF083D005D
:100E78002DE9FF4104461F460D469046FFF76AFBE1
:100E880094F83D30202B064604D00225284604B0AD
:100E9800BDE8F0810090192301225B492046FFF745
:100EA800E3FE0028F1D194F83C30012BEDD001236A
:100EB80084F83C3023681A68D2075EBF1A6842F08B
:100EC80001021A601A6822F400621A60212284F86A
:100ED8003D20102284F83E20002222646785628D1E
:100EE80022854A4AE262E26AC4F82480082A04D0C9
:100EF800012A02D012F5803F04D11A6842F48072A8
:100F08001A6002E0226B122AF7D0002200960A9B90
:100F18004FF001112046FFF7A7FE226838B1136889
:100F2800DB0544BF4FF4007323640125AEE7236952
:100F3800B3F5804F21D105F0FE05156133460A9AB5
:100F480033492046FFF701FE05460028EDD1236806
:100F580003905A6903929B690393039B238DF3B90A
:100F680021680A6842F400720A60202284F83D2051
:100F780084F83C3084F83E3088E7EB1103F0060330
:100F880043F0F003136123490A9A33462046FFF7DA
:100F9800DCFD0028C9D12368EDB21D61CEE73246D9
:100FA8000A992046FFF791FE40B1236C042BBCD16F
:100FB8002268136843F400731360B6E7636A206815
:100FC8001A4612F8011B01616262628D013A92B2FF
:100FD8006285228D4769511E89B27F0721850AD50E
:100FE80049B15978016102336362638D013B9BB259
:100FF800023A6385228532460A992046FFF7DFFDCB
:101008000028ABD0D1E700BF020010000000FFFFAE
:1010180002000100080001002DE9F043044689B0F0
:1010280098460E469146109FFFF794FA94F83D3083
:10103800202B054604D00226304609B0BDE8F083CF
:101048000090192301229B492046FFF70DFE002836
:10105800F1D194F83C30012BEDD0012384F83C30D9
:1010680023681A68D2075EBF1A6842F001021A6044
:101078001A6822F400621A60222284F83D201022A5
:1010880084F83E2000222264A4F82A80628D2285FA
:10109800894AE262E26A1968C4F8249041F48061DE
:1010A800082A196004D0012A02D012F5803F04D121
:1010B8001A6842F480721A6002E0226B112AF7D093
:1010C8003B46009500224FF001112046FFF7CCFD6A
:1010D800236838B11B68D80544BF4FF400732364F4
:1010E8000126A9E72269B2F5804F23D146F001060F
:1010F800F6B21E612B463A4670492046FFF725FD99
:1011080006460028ECD1228D2368002A47D1039097
:101118005A6903929A690392039A1A6842F4007210
:101128001A60202384F83D30002384F83E3084F888
:101138003C3081E74FEAE61808F0060848F0F0026C
:101148001A615F492B463A462046FFF7FEFC002805
:10115800C6D123685949F6B21E613A462B46204645
:10116800FFF7F3FC02460028BAD1236807905969B3
:101178000791996907910799196841F48071196075
:10118800204600953B464FF00111FFF76DFD2268A0
:1011980008B113689FE748F0F1031361AAE7012A31
:1011A8002CD11A6822F480621A6004905A69049259
:1011B8009A690492049A1A6842F400721A60DFF875
:1011C8000481238D002BACD0032B7DD8012B30D18B
:1011D8002A4639462046FFF718FD002880D12368A3
:1011E8001A69636A1A70636A01336362238D013B6B
:1011F8002385638D013B9BB26385E2E7022A1A6867
:101208000DD122F480621A601A6842F400621A60F2
:1012180005905A6905929B690593059BCFE742F4AF
:1012280080621A6006905A6906929B690693069B2B
:10123800C5E7022B00953B464FF000024146204689
:101248001AD1FFF711FD00287FF44AAF23681A6806
:1012580042F400721A601A69636A1A70626A531C4F
:101268006362238D013B2385638D013B9BB26385BC
:1012780023681B695370B6E7FFF7F6FC024600289F
:101288007FF42EAF2368196821F480611960196909
:10129800636A1970636A009501336362238D013BA9
:1012A8002385638D013B9BB2638541463B462046BF
:1012B800C7E700BF020010000000FFFF02000100A6
:1012C80008000100040001002A4639462046FFF7BD
:1012D8009CFC00287FF404AF23681A69636A1A70BB
:1012E800626A531C6362238D013B2385638D013B36
:1012F8009BB263852368596949077FF562AFB8E7F0
:1013080090F83D0070470000F8B50446002841D029
:1013180090F8413003F0FF022BB9424B80F840208F
:10132800436301F00BFC0221226884F84110D36961
:1013380023F47B6323F00F03D361636911628B424B
:1013480031D0E368002BA36814BF202510250120A5
:10135800202B98BF6D0000F07DFE23696169B3F50D
:10136800007F1BD1E3680A22B3B1AB00B0FBF3F3F3
:1013780053430A22B3FBF1F30533B3FBF2F303F053
:10138800010212025B08991EFD290ED9636C43F015
:1013980010036364012044E0EB00E7E70A23B0FB95
:1013A800F5F04343E5E70022EDE71343226921689E
:1013B800E568A069DFF87CC013430B62D4E90163D8
:1013C80046EA0302CF6942F400622A43024307EA6D
:1013D8000C073A43CA61226A012A1DD1124A626384
:1013E800124F134AB94218BF4FF040222B43D1691C
:1013F80001EA0C01D16102211162D76943F400634B
:10140800034336F4007143EA070314BF00214FF485
:1014180080719BB20B43D36100200123606484F880
:101428004130F8BD47140008C917000800380040CB
:101438000034004040F0FFFF7047704770471FB509
:1014480003689A68019290F84120042A044636D12C
:10145800019AD10717D55A68520614D5C26AD968B5
:1014680022F8021BC262428E013A92B24286428E32
:1014780092B242B95A6822F060025A60012380F899
:101488004130FFF7DAFF019B590618D523685A68DF
:10149800920614D55A6822F060025A60002202921D
:1014A800DA6802929B680293029B012384F8413018
:1014B800636C43F0020363642046FFF7BFFF94F8B0
:1014C8004130032B36D1019B9B0719D522685368FD
:1014D800180615D5636A33F8021BD1606362638D01
:1014E800013B9BB26385638D9BB24BB9536823F074
:1014F800A0035360012384F841302046FFF79CFF86
:10150800019B190716D523685A68920612D55A689E
:1015180022F0A0025A60002203929B680393039B67
:10152800012384F84130636C43F00403636420466C
:10153800FFF784FF04B010BD806B0D490268536843
:1015480023F0030353600B4B8A4218BF4FF040232C
:101558005A6822F003025A60002343854386012318
:1015680080F84130436C43F008034364FFF766BFDB
:1015780000380040003400402DE9F341044690F85B
:101588004100C0B201280E46154640F0AD80002942
:101598005ED0002A5CD0002B5AD094F84020012A53
:1015A80000F0A4806162216884F84000CA69E5629D
:1015B80002F00702032A01D0052A01D15B009BB281
:1015C8002385D4F83CC06385A06B238600226386FC
:1015D80005236264DFF828E184F84130444F454B25
:1015E800CCF84C30CCF840E0CCF83C70C364CB6904
:1015F800DFF8088113F4807FC0E90F7E39D13E4FB0
:10160800238E41450CBF39464FF040212A460C3104
:101618006046FFF7A3F82268A06B42450CBF394625
:101628004FF040210C324B6843F001034B60238D8F
:101638003146FFF793F823685A6842F002025A606D
:10164800D86910F4806006D00020002384F8403068
:1016580002B0BDE8F08143450CBF39464FF0402148
:10166800CA6942F48062CA61DA6942F48062DA6166
:10167800EBE7CB6903F44073B3F5407F05D10192E2
:10168800CB6801938B680193019B1B4F238D4145C8
:101698000CBF39464FF0402101F10C023146FFF7EB
:1016A8005DF8164E2168E06BB1420CBF3A464FF028
:1016B80040220C31536843F002035360238E2A46BC
:1016C800FFF74CF823685A6842F001025A60D8695B
:1016D80010F48060B8D1B34218BF4FF04027FA69C0
:1016E80042F48062FA61BFE70220AEE70220AFE76A
:1016F8001917000841150008003400400038004060
:101708000D17000808B5806B00F02AFF08BD00001F
:1017180038B5C369846B0546002B40D1E36B83421F
:1017280020D12368DA6902F44072B2F5007F03D051
:10173800DA6912F4407F06D11F49204A8B420CBF58
:1017480013464FF040235A6822F001025A600023E2
:101758006386638D9BB22BB9012384F84130204600
:1017680000F008FFA36BAB4219D12368DA6902F4D1
:101778004072B2F5007F03D0DA6912F4407F12D1CB
:101788005A6822F002025A6000236385638E9BB276
:101798002BB9012384F84130204600F0EBFE2046A7
:1017A80000F0E8FE38BD0449044A8B420CBF1346DA
:1017B8004FF04023E4E700BF003800400034004009
:1017C80010B502688E49936886B0044600938D4B25
:1017D8008A4218BF4FF040239968019151680291DD
:1017E80059680391416831F4007140F09380009B7F
:1017F80099071AD5029B1B0617D5436A991C1B88A3
:101808004162D360438D013B9BB24385438D9BB2BC
:101818005BB9536823F0A0035360438E9BB223B98E
:10182800012380F8413000F0A5FE019BD80722D59E
:10183800039B59061FD52168714A724B914218BF04
:101848004FF04023E26AD968901CE0621180628EF2
:10185800013A92B26286628E92B262B95A6822F0F6
:1018680060025A60638D9BB22BB9012384F8413022
:10187800204600F07FFE019B5A0622D5039B9B065B
:101888001FD523685E495F4A8B4218BF4FF040223C
:101898002046516821F0600151605A6822F0A00288
:1018A8005A6000220492DA6804929B680493049BAD
:1018B800012384F84130636C43F002036364FFF74B
:1018C800BDFD009B180740F19880029B990640F1E6
:1018D800948023684A495A6822F0A0025A60494A0B
:1018E8008B4218BF4FF04022516821F060015160CF
:1018F800002205929B680593059B012384F84130DB
:10190800636C204643F00403636406B0BDE81040EE
:10191800FFF794BD019A92071AD5039A110617D5B5
:10192800426A911C12884162DA60428D013A92B291
:101938004285428D92B25AB95A6822F0A0025A6082
:10194800438E9BB223B9012380F8413000F012FE88
:10195800009BDA071CD5029B5B0619D5E36A22684F
:10196800981CD168E0621980638E013B9BB2638644
:10197800638E9BB263B9536823F060035360638D31
:101988009BB22BB9012384F84130204600F0F2FDC8
:10199800009B58061BD5029B990618D52268184942
:1019A800536823F060035360164B8A4218BF4FF008
:1019B800402320465A6822F0A0025A60012384F886
:1019C8004130636C43F002036364FFF737FD019B0A
:1019D8001A0712D5039B9B060FD522680849094BA5
:1019E8008A4218BF4FF04023596821F0A00159607E
:1019F800536823F0600353607FE706B010BD00BF53
:101A080000380040003400402DE9F341044608B98D
:101A180001203FE00368DD0710D4236898075AD4F3
:101A280023681A0700F19C8023685B0700F1BA80DD
:101A3800A069002840F01B8100202BE0A74B9A6882
:101A480002F00C02042A07D09A6802F00C02082A55
:101A58000AD15B68590207D5A04B1B689A03DCD5ED
:101A68006368002BD9D1D3E763689C4DB3F5803FF9
:101A780013D12B6843F480332B60FEF76BFD974D31
:101A880006462B689B03C8D4FEF764FD801B6428B8
:101A9800F7D9032002B0BDE8F081B3F5A02F04D137
:101AA8002B6843F480232B60E3E72A6822F4803212
:101AB8002A602A6822F480222A60002BDDD1FEF7F2
:101AC80049FD06462B689F03A7D5FEF743FD801BFB
:101AD8006428F7D9DDE7814B9A6812F00C0F07D01C
:101AE8009A6802F00C02082A11D15B685E020ED4D3
:101AF8007A4B1A68950702D5E268012A88D11A68D4
:101B0800216922F0F80242EAC1021A6088E7E26815
:101B1800734BB2B101221A60FEF71CFD6F4D0646E9
:101B28002B68980707D52B68226923F0F80343EA46
:101B3800C2032B6074E7FEF70DFD801B0228EFD966
:101B4800A7E71A60FEF706FD644D06462B6899075D
:101B58007FF566AFFEF7FEFC801B0228F6D998E7F2
:101B68006269604B7AB101221A60FEF7F3FC5B4DA3
:101B780006466B6F9F073FF557AFFEF7EBFC801BE0
:101B88000228F6D985E71A60FEF7E4FC534D0646AD
:101B98006B6F98077FF548AFFEF7DCFC801B0228C7
:101BA800F6D976E74D4B1A6C12F0805228D1019283
:101BB8001A6C42F080521A641B6C03F08053019334
:101BC800019B0126484D2B68D9051BD5A368434DB9
:101BD800012B27D12B6F43F001032B67FEF7BAFCCB
:101BE8003E4D074641F288382B6F9B0739D5002EAA
:101BF8003FF41EAF394A136C23F08053136417E780
:101C08000026DFE72B6843F480732B60FEF7A2FC05
:101C180007462B68DA05D9D4FEF79CFCC01B0228BE
:101C2800F7D936E7052B04D12B6F43F004032B6754
:101C3800D0E72A6F22F001022A672A6F22F00402F5
:101C48002A67002BCAD1FEF785FC41F2883807467F
:101C58002B6F9807CBD5FEF77DFCC01B4045F7D905
:101C680017E7FEF777FCC01B4045BDD911E71B4DB0
:101C7800AB6803F00C03082B47D01C4E0023022846
:101C8800336035D1FEF766FC07462B6899011ED4F0
:101C9800D4E907321343626A43EA8213E26A43EAE9
:101CA8000263A26A0D4C5208013A43EA02436B6090
:101CB80001233360FEF74EFC054623689A013FF581
:101CC800BBAEFEF747FC401B0228F6D9E1E6FEF75B
:101CD80041FCC01B0228D8D9DBE600BF003802400F
:101CE80000004742800E47420070004060004742B3
:101CF800FEF730FC04462B689B017FF59DAEFEF78E
:101D080029FC001B0228F6D9C3E601283FF4C2AE1D
:101D1800A868E36900F480029A427FF479AE226AE7
:101D280000F03F0393427FF473AE626A47F6C073D4
:101D3800034093427FF46CAEA26A00F440339342AE
:101D48007FF466AEE36A00F07060C01A18BF012025
:101D5800A0E600BF134908B58B6803F00C03042BF9
:101D680003D0082B03D0104800E0104808BD4A688B
:101D78004B68496813F4800314BF0C480A48C1F340
:101D8800881118BF002302F03F02A1FB0001FEF7F3
:101D980017FA044B5B68C3F3014301335B00B0FBE4
:101DA800F3F0E3E7003802400024F40000127A0060
:101DB8002DE9F0410D46044610B90120BDE8F08137
:101DC800434B1A6802F00F028A4228D321688F0712
:101DD8002DD4C80740D43E4B1A6802F00F02AA421D
:101DE80065D8226851076BD4130707D5394A21698A
:101DF800936823F4604343EAC1039360FFF7AAFFA3
:101E0800344B354A9B68C3F30313D35CD840334B38
:101E18001860334B1868FEF753FB0020CEE7CAB2B0
:101E28001A701B6803F00F038B42C6D1CEE7294B0B
:101E380011F0040F1EBF9A6842F4E0529A600E0730
:101E480042BF9A6842F460429A609A68A06822F099
:101E5800F00202439A60BCE762681E4B012A1CD15B
:101E68001B6813F4003FA8D01A4EB36823F003038D
:101E78001343B360FEF76EFB41F288380746B36838
:101E8800626803F00C03B3EB820FA4D0FEF762FB89
:101E9800C01B4045F3D9032090E7911E01291B6818
:101EA80002D813F0007FDEE713F0020FDBE7EAB297
:101EB8001A701B6803F00F03AB427FF47EAF90E704
:101EC8000449E0688B6823F4E05303438B608BE795
:101ED800003C0240003802402CB0000808000020F6
:101EE80004000020044B054A9B68C3F38223D35C9B
:101EF800034A1068D8407047003802403CB00008D8
:101F080008000020044B054A9B68C3F34233D35CA6
:101F1800034A1068D8407047003802403CB00008B7
:101F280008000020036813F0050FF7B5054605D132
:101F3800286810F0020028D103B0F0BD414C424E91
:101F480000232360FEF706FB074633681B0115D400
:101F5800D5E901231B0743EA8213C6F8843001231D
:101F68002360FEF7F7FA384C064623681801DFD4D9
:101F7800FEF7F0FA801B0228F7D904E0FEF7EAFA28
:101F8800C01B0228E1D90320D6E7002301932E4B7A
:101F98002E4C1A6C42F080521A641B6C03F080536A
:101FA8000193019B236843F480732360FEF7D2FA00
:101FB80006462368D9051BD5234C236F13F44073B9
:101FC8001CD1EB6803F44072B2F5407F1E4A34D14D
:101FD800916823F0704021F4F81120F44070014317
:101FE8009160116FC3F30B030B4313670020A3E742
:101FF800FEF7B0FA801B0228DBD9C4E7EA6802F4CE
:1020080040729342DDD0236F114A0121116023F4FD
:102018004073002111602367236FDA07D1D5FEF7DB
:1020280099FA41F288370646236F9B07C9D4FEF711
:1020380091FA801BB842F7D9A5E7916821F4F81105
:10204800CEE700BF680047420038024000700040F9
:10205800400E4742012820D1114B9A6812F4000221
:1020680004D0012A0F4818BF002070475A680C494D
:1020780058685302D1F884204CBF0B4B0B4B00F02F
:102088003F00B3FBF0F3D1F88400C2F38812534346
:10209800C0F30270B3FBF0F070470020704700BF38
:1020A800003802400080BB0000127A000024F400CF
:1020B8000368C1681A6970B522F4405204460A439D
:1020C8001A612569A268D968C0692A43656921F43B
:1020D80016412A4321F00C0102430A43DA605A6987
:1020E800A16922F440720A43B0F5004F5A61264AAA
:1020F80029D1934203D002F58062934220D1FFF7A1
:1021080001FF6268002692184FF0190146EB06039A
:10211800A0FB0101FEF754F86421B0FBF1F501FBC7
:102128001503DB003233B3FBF1F303F007025B0066
:10213800216802EB051203F4F87313448B6070BD39
:10214800FFF7D0FEDDE7934202D0104A934217D141
:10215800FFF7D8FE636819219A00A0FB01019B0FC5
:10216800FEF72EF86422B0FBF2F102FB110324689B
:102178001B013233B3FBF2F303EB0113A360DEE779
:10218800FFF7B0FEE6E700BF001001400014014071
:10219800F8B504460E4617461D4621680B6836EA10
:1021A800030301D1002014E06B1CF7D095B9236814
:1021B800DA6822F4D072DA605A6922F001025A61B0
:1021C800202384F8393084F83A30002384F83830F2
:1021D8000320F8BDFEF7BEF9C01B8542DDD2E6E755
:1021E80010B5044640B390F8393003F0FF021BB92C
:1021F80080F8382000F01AFD2268242384F839304A
:10220800D36823F40053D3602046FFF751FF2368B7
:102218001A6922F490421A615A6922F02A025A6114
:10222800DA6842F40052DA6000202023E06384F880
:10223800393084F83A3010BD0120FCE72DE9F84325
:102248001F4690F83A30202B04460D46904655D14B
:10225800002951D0002A4FD090F83830012B4DD0AA
:10226800012380F838304FF000092223C0F83C9051
:1022780080F83A30FEF76EF9A4F82C800646A4F8E8
:102288002E8084F83890E08D80B218B9202384F825
:102298003A3010E0E38D013B9BB2E385A368B3F5C8
:1022A800805F32463B464FF02001204616D1FFF7AB
:1022B8006FFF10B10320BDE8F883226923683AB99B
:1022C8005A682B46C2F3080223F8022B1D46DAE7A8
:1022D8005A682B46D2B223F8012BF7E7FFF758FFCD
:1022E8000028E7D12268216952686B1C09B92A7055
:1022F800ECE702F07F02FAE70120DCE70220DAE7E8
:1023080002784388022A0DD0042A14D0012A19D150
:10231800027913449BB2B3F57F4F438012D3022353
:1023280003700FE042799B1A02899BB29A4243805C
:1023380008D30323F4E782799B1A9BB2B3F5807F15
:102348000AD943804388DFED067A00EE103AB8EEEA
:10235800400A80EE270A704700234380E0E700BF69
:1023680000007F4713B54FF0FF33009302460B463A
:102378000548054C9421FEF77BFD2046FEF7C0FF7B
:102388002028FAD102B010BD2C00002010B586B06C
:1023980006AA4FF0FF3402F8090D01230094942196
:1023A8000A48FEF765FD009401230DF117029421F8
:1023B8000648064CFEF730FE2046FEF7A1FF20280F
:1023C800FAD19DF8170006B010BD00BF2C00002000
:1023D80037B5012202AC10214748FEF797FB40F2BF
:1023E8000D1324F8083D02212046FFF7BBFF4FF4E8
:1023F800194320460221ADF80030FFF7B3FF48F239
:10240800470302212046ADF80030FFF7ABFF32202A
:10241800FFF7BCFF60F07F0032258DF80100022134
:1024280020468DF80050FFF79DFF2846FFF7AEFFC6
:1024380000F07F008DF80100022120468DF8005041
:10244800FFF790FF002320460221ADF80030FFF788
:1024580089FF4AF6047320460221ADF80030FFF7E1
:1024680081FF47F20D0320460221ADF80030FFF747
:1024780079FF48F2051320460221ADF80030FFF736
:1024880071FF40F2067320460221ADF800300A259C
:10249800FFF768FF20460221ADF80050FFF762FF02
:1024A800272320460221ADF80030FFF75BFF40F6F6
:1024B8009A2320460321ADF800308DF80250FFF72B
:1024C80051FF40F61F7320460221ADF80030FFF798
:1024D80049FF4DF6220320460221ADF80030FFF7F0
:1024E80041FF49F6026302212046ADF80030FFF7AC
:1024F80039FF03B030BD00BF000C02402DE9F047A2
:10250800DFF858908CB000274FF0140AC846002511
:10251800CDE903550AFB0794029504F10C0393E8EF
:1025280003008DE8030006AE94E80E0006A800F04C
:1025380055FA0FCE0FC4013733682360082FE6D150
:102548002B46284608EB030214331289A02B1044AB
:10255800F8D1C0F30F100CB0BDE8F087E000002000
:1025680008B5FFF7CBFF024B1880588008BD00BFA5
:102578005802002008B5FFF7C1FF024B9880D880A9
:1025880008BD00BF58020020F0B5142499B02246B7
:1025980000210DA800F0EEFB10262246002107A816
:1025A80000F0E8FB3246002103A800F0E3FB00241A
:1025B8001F4B01941A6C42F080521A641B6C03F092
:1025C80080530193019B1B4B02941A6842F480428A
:1025D8001A601B6803F4804302930822029BA82315
:1025E8000225CDE91423012707230CA817930C957E
:1025F800CDE90F76CDE912541695FFF705FA0F23AA
:10260800CDE907354FF4A0514FF48053CDE90A13B3
:1026180007A805210994FFF7CBFB04236020CDE927
:10262800040303A80397FFF77DFC19B0F0BD00BFB2
:1026380000380240007000402DE9F0438DB00024BE
:10264800964DDFF89C92FDF75FFFFFF79DFF142280
:10265800002107A800F08EFB01942B6B904843F0F3
:1026680010032B632B6B03F010030193019B02945F
:102678002B6B43F004032B632B6B03F004030293CF
:10268800029B03942B6B43F080032B632B6B03F0AB
:1026980080030393039B04942B6B43F001032B6388
:1026A8002B6B03F001030493049B05942B6B43F0FD
:1026B80002032B632B6B03F002030593059B06941F
:1026C8002B6B43F008032B632B6B03F00803069373
:1026D80022460821069BFEF719FA01221146714885
:1026E800FEF714FA22464FF210016F48FEF70EFA71
:1026F8000127082607A96A48CDE90767CDE90944F3
:10270800FEF724F907A967484FF00508CDE90777D0
:10271800CDE90944FEF71AF9079607A90226614888
:102728000A94CDE90864CDF82C80FEF70FF907A9C3
:102738005E480797CDE90894FEF708F9E02307A952
:102748005A48CDF82C80CDE90736CDE90944FEF783
:10275800FDF8042307A956480994CDE90734FEF784
:10276800F5F84FF4806307A95148CDF82C80CDE9DE
:102778000736CDE90944FEF7E9F84FF2100307A937
:102788004948CDE90737CDE909444FF40077FEF70A
:10279800DDF807A945480994CDE90774FEF7D6F88E
:1027A8004FF4E053CDE9073607A90A233F480B93B6
:1027B800CDE90944FEF7CAF8202307A93A48099445
:1027C800CDE90734FEF7C2F807A935480994CDE9E1
:1027D8000769FEF7BBF807942B6B43F400132B63D0
:1027E8002B6B344D03F40013214622460793102027
:1027F800079BFDF7C7FE1020FDF7F8FE2E4B2F6153
:10280800C5E9003728464BF68033C5E90534C5E9E4
:102818000244C5E90744FEF777FD2848284A294BB2
:102828000462C0E900234FF48043C0E90434C0E9DE
:102838000244C0E90644FEF76FFA234823490461BD
:1028480047F61223C0E900130C23C0E90534C0E998
:102858000244C461FFF7C4FCFFF7BAFD33461C4AC3
:102868001C491D4F2846FEF787FE1C4B4FF0140CE1
:1028780021464FF47A450D20FA220CFB04760134E8
:10288800082C3361197059801D8158711A719A7119
:1028980003F10A03F1D100F083F8FCE700380240A5
:1028A8000010024000080240000C024000000240F4
:1028B8000004024010020020003C00402C000020D0
:1028C80000540040A0860100800100200044004020
:1028D8006202002058020020E0000020C001002011
:1028E800000012107047000007B54FF0FF330122B7
:1028F80001A90448FFF7A2FC9DF8040003B05DF8A5
:1029080004FB00BF8001002030B5084C00231421CF
:1029180001FB0342957A854203D1136904221A7098
:1029280030BD0133082BF3D1FAE700BFE0000020E7
:10293800184B70B50024142606FB0432957A8DB91D
:10294800154B907253F820301360144B55605B5C44
:1029580007EE903AFBEEEC7A1369C2ED037A012296
:102968001A7070BD0134082CE6D10B4A83F8960022
:1029780052F82020C3F88C20084A525C07EE902AAF
:10298800FBEEEC7A0022C3ED267AC3F89020D3F848
:102998009C30E4E7E0000020AC2D0008AC2F0008D4
:1029A80010B5FFF7A1FF00F0F000802805D1FFF770
:1029B8009BFFBDE81040FFF7A7BF90280CD1FFF799
:1029C80093FF0446FFF790FF014620460029F0D008
:1029D800BDE81040FFF7ACBF10BD000084B02DE982
:1029E800F84309AE86E80E0005460D989DF8383084
:1029F80090F800800A9FB8F1000F44D0BDF83C2041
:102A0800BDF82C400F44894617446BBBBA0C1F4BCA
:102A180033F812307C0D04EB53049DF82E80FFF739
:102A28006FFCBDF840309DED0C7AE31807EE903A44
:102A3800F8EEE77A67EE877A27EE800ABDEEC00ADD
:102A480010EE103A9BB2CDE90997ADF82C308DF80D
:102A58002E8034460FCC2F460FC723683B6028468C
:102A6800BDE8F84304B07047012B08D147F6FE745F
:102A7800A7424FF0FF3498BF0024A4B2CDE7022B41
:102A880008BFBCB2C9E74346C146DCE72C300008A2
:102A980082B00D4B002100915A6C42F480425A6476
:102AA8005A6C02F480420092009A01911A6C42F02A
:102AB80080521A641B6C03F080530193019B07201A
:102AC80002B0FDF74DBD00BF0038024030B50446E6
:102AD80089B01422002103A800F04CF92268144B95
:102AE8009A4222D1134C144800250195236B43F0D8
:102AF80002032363236B03F002030193019B4FF44A
:102B080010721223CDE903230123059303A904239B
:102B18000793FDF71BFF0295236C43F4001323640E
:102B2800236C03F400130293029B09B030BD00BF6D
:102B3800005400400038024000040240F0B5064648
:102B480089B01422002103A800F014F93268324B2E
:102B58009A425ED103F5FE33002500951A6C2F4882
:102B680042F400421A641A6C02F400420092009A7D
:102B780001951A6B42F001021A631A6B02F0010206
:102B88000192019A02951A6B42F004021A631B6BB8
:102B980003F00403029302240627029B07971023DD
:102BA80003A9CDE90334FDF7D1FE4FF4A45303A9DB
:102BB8001B480797CDE903344FF40067CDE9055565
:102BC800FDF7C4FE05231648079303A9CDE903744E
:102BD800CDE90555134CFDF7B9FE134BC4E9003593
:102BE8004023C4E902354FF48063C4E904374FF445
:102BF80000524FF48073C4E9062320464FF4003393
:102C0800C4E90835FDF72CFD08B1FFF76BFEB46386
:102C1800A66309B0F0BD00BF003C004000000240C0
:102C280000080240800000208860024010B5044679
:102C380088B01422002103A800F09CF82268154BE4
:102C48009A4224D103F5FA33002101911A6C1248F3
:102C580042F400321A641A6C02F400320192019AAA
:102C680002911A6B42F001021A631B6B03F0010315
:102C78000293029B0C2202230121CDE903230323A3
:102C8800CDE90513072303A90793FDF75FFE08B0F5
:102C980010BD00BF00440040000002407047FEE73E
:102CA800FEE7FEE7FEE7704770477047FDF746BC52
:102CB8000148FDF78DBD00BF80000020054BD3F80B
:102CC800882042F47002C3F888204FF000629A60AE
:102CD800704700BF00ED00E0DFF834D0002103E0CA
:102CE8000C4B5B58435004310B480C4B42189A422A
:102CF800F6D30B4A02E0002342F8043B094B9A4200
:102D0800F9D3FFF7DBFF00F011F8FFF795FC7047E8
:102D18000000022054B00008000000200C00002031
:102D28000C0000206C020020FEE7000070B50D4E7C
:102D38000D4CA41BA4100025A54209D10B4E0C4C28
:102D480000F020F8A41BA4100025A54205D170BDF1
:102D580056F8253098470135EEE756F8253098475C
:102D68000135F2E74CB000084CB000084CB0000840
:102D780050B0000802440346934200D1704703F85C
:102D8800011BF9E7F8B500BFF8BC08BC9E467047C0
:0C2D9800F8B500BFF8BC08BC9E467047B0
:102DA4000006101600061016BC6F0B00881B0C00E2
:102DB400A6D50C00EC960D0083660E00D7400F00DC
:102DC4007C29100072201100B9251200513913001A
:102DD400CE5E14009C921500E4DB16001137180037
:102DE400B8A719006D311B0006CD1C0042851E00DA
:102DF4008C562000E4402200724B2400A27226006C
:102E04009CBD2800CD282B00C9B72D00B771300018
:102E140005533300455F36000D9A3900F1063D0035
:102E240085A94000C88144005093480044E54C0003
:102E3400A57751009B51560026735B006FE3600039
:102E44000AA666008BBE6C00B037730077117A0057
:102E54000A53810090038900342A910088CA99009A
:102E64004AEFA200A29FAC00B9E2B6004BC3C10076
:102E74008148CD00177DD900CB6BE6005A1FF400C2
:102E840014A6020121071201D45022011195330125
:102E940094DE4501443F590106C96D0196868301BC
:102EA40096949A01C3FDB2012CDBCC014942E8019E
:102EB40094480502430E24023DA54402222A6702D7
:102EC40029BD8B02897EB202788EDB02C010070313
:102ED40098253503F3F7650358B699039284D00314
:102EE400BC940A04F3184804E64689044454CE0406
:102EF400E77D1705A7006505F01CB705EC1D0E0658
:102F0400304B6A067AF3CB061C6933079005A10798
:102F140079291508E6319008CC8D120989A89C09F5
:102F2400CFFB2E0ABAFDC90A753D6E0BD93B1C0CAA
:102F34006196D40CF5E6970D38D2660EB40E420FA6
:102F4400F3522A10CD632011981B25121251391304
:102F54000AF45D1409FF93155677DC16B277381816
:102F6400C22CA91956CA2F1B71A4CD1CD519841EB5
:102F740052A254202FCB402230374A2425A2722655
:102F840014E8BB287EFA272BACEEB82D64EF703022
:102F9400F1555233AC945F36E2489B39AB33083D6C
:102FA400A444A940CB928144000205070A0C0F11E6
:102FB4001416181B1D1F21232527292B2C2E3031D5
:102FC40033353638393A3C3D3E4041424345464725
:102FD40048494A4B4C4D4E4F5051525353545556F9
:102FE400575758595A5A5B5C5C5D5E5E5F6060611E
:102FF4006162636364646565666667676868696976
:103004006A6A6B6B6B6C6C6D6D6D6E6E6F6F6F70EF
:103014007070717171727272737373747474757584
:10302400757676767677777A00800C80198025809D
:1030340032803E804B805780648071807D808A809E
:103044009680A380AF80BC80C980D580E280EE806A
:10305400FB800781148121812D813A81468153812E
:103064005F816C817881858192819E81AB81B781FA
:10307400C481D081DD81EA81F68103820F821C82C2
:103084002882358242824E825B8267827482808289
:103094008D829982A682B382BF82CC82D882E58255
:1030A400F182FE820B831783248330833D8349831B
:1030B400568362836F837C8388839583A183AE83E5
:1030C400BA83C783D483E083ED83F98306841284AF
:1030D4001F842B843884458451845E846A84778475
:1030E400838490849C84A984B684C284CF84DB8442
:1030F400E884F48401850D851A8527853385408508
:103104004C855985658572857E858B859885A485D2
:10311400B185BD85CA85D685E385EF85FC8509869D
:10312400158622862E863B864786548660866D8663
:103134007A86868693869F86AC86B886C586D1862F
:10314400DE86EA86F786048710871D8729873687F7
:1031540042874F875B876887748781878E879A87C2
:10316400A787B387C087CC87D987E587F287FE878F
:103174000B881888248831883D884A885688638853
:103184006F887C8888889588A188AE88BB88C78822
:10319400D488E088ED88F988068912891F892B89EB
:1031A4003889448951895D896A89778983899089B5
:1031B4009C89A989B589C289CE89DB89E789F48983
:1031C400008A0D8A198A268A328A3F8A4C8A588A4A
:1031D400658A718A7E8A8A8A978AA38AB08ABC8A17
:1031E400C98AD58AE28AEE8AFB8A078B148B208BE4
:1031F4002D8B398B468B528B5F8B6C8B788B858BAD
:10320400918B9E8BAA8BB78BC38BD08BDC8BE98B7A
:10321400F58B028C0E8C1B8C278C348C408C4D8C43
:10322400598C668C728C7F8C8B8C988CA48CB18C12
:10323400BD8CCA8CD68CE38CEF8CFC8C088D158DE0
:10324400218D2E8D3A8D478D538D608D6C8D798DAA
:10325400858D928D9E8DAB8DB78DC48DD08DDD8D7A
:10326400E98DF68D028E0F8E1B8E288E348E418E44
:103274004D8E5A8E668E738E7F8E8C8E988EA58E12
:10328400B18EBE8ECA8ED68EE38EEF8EFC8E088FE4
:10329400158F218F2E8F3A8F478F538F608F6C8FAE
:1032A400798F858F928F9E8FAB8FB78FC48FD08F7E
:1032B400DC8FE98FF58F02900E901B90279034904D
:1032C40040904D905990669072907F908B9097901B
:1032D400A490B090BD90C990D690E290EF90FB90EE
:1032E4000891149120912D913991469152915F91B9
:1032F4006B917891849191919D91A991B691C2918C
:10330400CF91DB91E891F49101920D92199226925A
:1033140032923F924B925892649270927D9289922B
:103324009692A292AF92BB92C792D492E092ED92FF
:10333400F992069312931E932B93379344935093CD
:103344005D936993759382938E939B93A793B493A0
:10335400C093CC93D993E593F293FE930A94179474
:10336400239430943C944894559461946E947A9444
:10337400879493949F94AC94B894C594D194DD9419
:10338400EA94F69403950F951B95289534954095EA
:103394004D955995669572957E958B959795A495BF
:1033A400B095BC95C995D595E195EE95FA95079696
:1033B40013961F962C963896459651965D966A9666
:1033C400769682968F969B96A796B496C096CD963F
:1033D400D996E596F296FE960A97179723972F9714
:1033E4003C974897559761976D977A9786979297E8
:1033F4009F97AB97B797C497D097DC97E997F597C2
:1034040001980E981A98269833983F984B98589894
:10341400649870987D9889989598A298AE98BA986F
:10342400C798D398DF98EC98F898049911991D9946
:103434002999369942994E995B996799739980991C
:103444008C999899A599B199BD99CA99D699E299F7
:10345400EE99FB99079A139A209A2C9A389A459ACE
:10346400519A5D9A699A769A829A8E9A9B9AA79AA9
:10347400B39ABF9ACC9AD89AE49AF19AFD9A099B86
:10348400159B229B2E9B3A9B479B539B5F9B6B9B5D
:10349400789B849B909B9D9BA99BB59BC19BCE9B3A
:1034A400DA9BE69BF29BFF9B0B9C179C239C309C16
:1034B4003C9C489C549C619C6D9C799C859C929CF2
:1034C4009E9CAA9CB69CC39CCF9CDB9CE79CF49CD2
:1034D400009D0C9D189D259D319D3D9D499D569DAA
:1034E400629D6E9D7A9D869D939D9F9DAB9DB79D8C
:1034F400C49DD09DDC9DE89DF49D019E0D9E199E6A
:10350400259E329E3E9E4A9E569E629E6F9E7B9E46
:10351400879E939E9F9EAC9EB89EC49ED09EDC9E2A
:10352400E99EF59E019F0D9F199F269F329F3E9F06
:103534004A9F569F629F6F9F7B9F879F939F9F9FEA
:10354400AC9FB89FC49FD09FDC9FE89FF59F01A0CC
:103554000DA019A025A031A03EA04AA056A062A0AB
:103564006EA07AA087A093A09FA0ABA0B7A0C3A091
:10357400CFA0DCA0E8A0F4A000A10CA118A124A174
:1035840031A13DA149A155A161A16DA179A185A157
:1035940092A19EA1AAA1B6A1C2A1CEA1DAA1E6A13F
:1035A400F3A1FFA10BA217A223A22FA23BA247A221
:1035B40053A260A26CA278A284A290A29CA2A8A208
:1035C400B4A2C0A2CCA2D9A2E5A2F1A2FDA209A3F1
:1035D40015A321A32DA339A345A351A35DA36AA3D6
:1035E40076A382A38EA39AA3A6A3B2A3BEA3CAA3BF
:1035F400D6A3E2A3EEA3FAA306A412A41FA42BA4A9
:1036040037A443A44FA45BA467A473A47FA48BA48E
:1036140097A4A3A4AFA4BBA4C7A4D3A4DFA4EBA47E
:10362400F7A403A50FA51BA527A533A53FA54BA567
:1036340057A564A570A57CA588A594A5A0A5ACA54F
:10364400B8A5C4A5D0A5DCA5E8A5F4A500A60CA63C
:1036540018A624A630A63CA648A654A660A66CA626
:1036640078A684A690A69BA6A7A6B3A6BFA6CBA61B
:10367400D7A6E3A6EFA6FBA607A713A71FA72BA70A
:1036840037A743A74FA75BA767A773A77FA78BA7F6
:1036940097A7A3A7AFA7BBA7C7A7D3A7DEA7EAA7E8
:1036A400F6A702A80EA81AA826A832A83EA84AA8D7
:1036B40056A862A86EA87AA885A891A89DA8A9A8CA
:1036C400B5A8C1A8CDA8D9A8E5A8F1A8FDA808A9BE
:1036D40014A920A92CA938A944A950A95CA968A9AE
:1036E40074A97FA98BA997A9A3A9AFA9BBA9C7A9A5
:1036F400D3A9DEA9EAA9F6A902AA0EAA1AAA26AA99
:1037040032AA3DAA49AA55AA61AA6DAA79AA85AA8C
:1037140090AA9CAAA8AAB4AAC0AACCAAD8AAE3AA86
:10372400EFAAFBAA07AB13AB1FAB2AAB36AB42AB7A
:103734004EAB5AAB65AB71AB7DAB89AB95ABA1AB73
:10374400ACABB8ABC4ABD0ABDCABE7ABF3ABFFAB70
:103754000BAC17AC22AC2EAC3AAC46AC52AC5DAC64
:1037640069AC75AC81AC8DAC98ACA4ACB0ACBCAC61
:10377400C7ACD3ACDFACEBACF6AC02AD0EAD1AAD5E
:1037840026AD31AD3DAD49AD55AD60AD6CAD78AD57
:1037940084AD8FAD9BADA7ADB3ADBEADCAADD6AD57
:1037A400E1ADEDADF9AD05AE10AE1CAE28AE34AE54
:1037B4003FAE4BAE57AE62AE6EAE7AAE86AE91AE53
:1037C4009DAEA9AEB4AEC0AECCAED7AEE3AEEFAE56
:1037D400FAAE06AF12AF1EAF29AF35AF41AF4CAF53
:1037E40058AF64AF6FAF7BAF87AF92AF9EAFAAAF56
:1037F400B5AFC1AFCDAFD8AFE4AFF0AFFBAF07B05B
:1038040013B01EB02AB035B041B04DB058B064B05A
:1038140070B07BB087B093B09EB0AAB0B5B0C1B061
:10382400CDB0D8B0E4B0EFB0FBB007B112B11EB167
:103834002AB135B141B14CB158B163B16FB17BB16B
:1038440086B192B19DB1A9B1B5B1C0B1CCB1D7B176
:10385400E3B1EEB1FAB106B211B21DB228B234B27C
:103864003FB24BB257B262B26EB279B285B290B285
:103874009CB2A7B2B3B2BEB2CAB2D6B2E1B2EDB292
:10388400F8B204B30FB31BB326B332B33DB349B399
:1038940054B360B36BB377B382B38EB399B3A5B3A8
:1038A400B0B3BCB3C7B3D3B3DEB3EAB3F5B301B4B7
:1038B4000CB418B423B42FB43AB446B451B45CB4C1
:1038C40068B473B47FB48AB496B4A1B4ADB4B8B4D4
:1038D400C4B4CFB4DBB4E6B4F1B4FDB408B514B5E4
:1038E4001FB52BB536B541B54DB558B564B56FB5F3
:1038F4007BB586B591B59DB5A8B5B4B5BFB5CAB508
:10390400D6B5E1B5EDB5F8B503B60FB61AB626B619
:1039140031B63CB648B653B65EB66AB675B681B62D
:103924008CB697B6A3B6AEB6B9B6C5B6D0B6DBB646
:10393400E7B6F2B6FEB609B714B720B72BB736B759
:1039440042B74DB758B764B76FB77AB786B791B770
:103954009CB7A8B7B3B7BEB7C9B7D5B7E0B7EBB78D
:10396400F7B702B80DB819B824B82FB83AB846B8A2
:1039740051B85CB868B873B87EB889B895B8A0B8BF
:10398400ABB8B6B8C2B8CDB8D8B8E4B8EFB8FAB8DE
:1039940005B911B91CB927B932B93EB949B954B9F5
:1039A4005FB96AB976B981B98CB997B9A3B9AEB917
:1039B400B9B9C4B9CFB9DBB9E6B9F1B9FCB907BA39
:1039C40013BA1EBA29BA34BA3FBA4BBA56BA61BA54
:1039D4006CBA77BA83BA8EBA99BAA4BAAFBABABA79
:1039E400C6BAD1BADCBAE7BAF2BAFDBA09BB14BB9B
:1039F4001FBB2ABB35BB40BB4BBB57BB62BB6DBBBC
:103A040078BB83BB8EBB99BBA4BBB0BBBBBBC6BBE3
:103A1400D1BBDCBBE7BBF2BBFDBB08BC13BC1FBC0A
:103A24002ABC35BC40BC4BBC56BC61BC6CBC77BC2E
:103A340082BC8DBC98BCA4BCAFBCBABCC5BCD0BC59
:103A4400DBBCE6BCF1BCFCBC07BD12BD1DBD28BD82
:103A540033BD3EBD49BD54BD5FBD6ABD75BD80BDAE
:103A64008BBD96BDA1BDACBDB7BDC2BDCDBDD8BDDE
:103A7400E3BDEEBDF9BD04BE0FBE1ABE25BE30BE09
:103A84003BBE46BE51BE5CBE67BE72BE7DBE88BE36
:103A940093BE9EBEA9BEB4BEBFBECABED5BEE0BE66
:103AA400EBBEF6BE01BF0CBF17BF21BF2CBF37BF93
:103AB40042BF4DBF58BF63BF6EBF79BF84BF8FBFC6
:103AC4009ABFA4BFAFBFBABFC5BFD0BFDBBFE6BFFD
:103AD400F1BFFCBF07C011C01CC027C032C03DC02D
:103AE40048C053C05DC068C073C07EC089C094C064
:103AF4009FC0A9C0B4C0BFC0CAC0D5C0E0C0EAC09E
:103B0400F5C000C10BC116C121C12BC136C141C1D1
:103B14004CC157C161C16CC177C182C18DC197C10C
:103B2400A2C1ADC1B8C1C3C1CDC1D8C1E3C1EEC149
:103B3400F8C103C20EC219C224C22EC239C244C281
:103B44004FC259C264C26FC279C284C28FC29AC2C0
:103B5400A4C2AFC2BAC2C5C2CFC2DAC2E5C2EFC202
:103B6400FAC205C310C31AC325C330C33AC345C33D
:103B740050C35AC365C370C37AC385C390C39BC380
:103B8400A5C3B0C3BBC3C5C3D0C3DAC3E5C3F0C3C5
:103B9400FAC305C410C41AC425C430C43AC445C405
:103BA40050C45AC465C46FC47AC485C48FC49AC44B
:103BB400A4C4AFC4BAC4C4C4CFC4D9C4E4C4EFC495
:103BC400F9C404C50EC519C524C52EC539C543C5D8
:103BD4004EC558C563C56EC578C583C58DC598C522
:103BE400A2C5ADC5B7C5C2C5CCC5D7C5E1C5ECC571
:103BF400F7C501C60CC616C621C62BC636C640C6B6
:103C04004BC655C660C66AC675C67FC68AC694C604
:103C14009FC6A9C6B4C6BEC6C8C6D3C6DDC6E8C656
:103C2400F2C6FDC607C712C71CC727C731C73BC7A3
:103C340046C750C75BC765C770C77AC784C78FC7F5
:103C440099C7A4C7AEC7B9C7C3C7CDC7D8C7E2C74A
:103C5400EDC7F7C701C80CC816C821C82BC835C89A
:103C640040C84AC854C85FC869C873C87EC888C8F1
:103C740093C89DC8A7C8B2C8BCC8C6C8D1C8DBC849
:103C8400E5C8F0C8FAC804C90FC919C923C92EC99F
:103C940038C942C94CC957C961C96BC976C980C9F9
:103CA4008AC994C99FC9A9C9B3C9BEC9C8C9D2C957
:103CB400DCC9E7C9F1C9FBC905CA10CA1ACA24CAB2
:103CC4002ECA39CA43CA4DCA57CA62CA6CCA76CA0E
:103CD40080CA8ACA95CA9FCAA9CAB3CABDCAC8CA71
:103CE400D2CADCCAE6CAF0CAFBCA05CB0FCB19CBD1
:103CF40023CB2ECB38CB42CB4CCB56CB60CB6ACB31
:103D040075CB7FCB89CB93CB9DCBA7CBB1CBBCCB96
:103D1400C6CBD0CBDACBE4CBEECBF8CB02CC0DCCFC
:103D240017CC21CC2BCC35CC3FCC49CC53CC5DCC5F
:103D340067CC72CC7CCC86CC90CC9ACCA4CCAECCC8
:103D4400B8CCC2CCCCCCD6CCE0CCEACCF4CCFECC37
:103D540008CD12CD1CCD26CD30CD3BCD45CD4FCD9C
:103D640059CD63CD6DCD77CD81CD8BCD95CD9FCD07
:103D7400A9CDB3CDBDCDC7CDD0CDDACDE4CDEECD7B
:103D8400F8CD02CE0CCE16CE20CE2ACE34CE3ECEE8
:103D940048CE52CE5CCE66CE70CE7ACE84CE8ECE57
:103DA40097CEA1CEABCEB5CEBFCEC9CED3CEDDCECF
:103DB400E7CEF1CEFACE04CF0ECF18CF22CF2CCF40
:103DC40036CF40CF4ACF53CF5DCF67CF71CF7BCFB4
:103DD40085CF8ECF98CFA2CFACCFB6CFC0CFC9CF2F
:103DE400D3CFDDCFE7CFF1CFFBCF04D00ED018D0A7
:103DF40022D02CD035D03FD049D053D05DD066D01E
:103E040070D07AD084D08DD097D0A1D0ABD0B4D09C
:103E1400BED0C8D0D2D0DBD0E5D0EFD0F9D002D11B
:103E24000CD116D120D129D133D13DD146D150D195
:103E34005AD164D16DD177D181D18AD194D19ED117
:103E4400A7D1B1D1BBD1C4D1CED1D8D1E1D1EBD19D
:103E5400F5D1FED108D212D21BD225D22FD238D21C
:103E640042D24BD255D25FD268D272D27BD285D2A3
:103E74008FD298D2A2D2ABD2B5D2BFD2C8D2D2D22C
:103E8400DBD2E5D2EFD2F8D202D30BD315D31ED3B3
:103E940028D331D33BD345D34ED358D361D36BD33B
:103EA40074D37ED387D391D39AD3A4D3ADD3B7D3CA
:103EB400C0D3CAD3D3D3DDD3E6D3F0D3F9D303D459
:103EC4000CD416D41FD429D432D43CD445D44FD4E2
:103ED40058D461D46BD474D47ED487D491D49AD476
:103EE400A4D4ADD4B6D4C0D4C9D4D3D4DCD4E5D40A
:103EF400EFD4F8D402D50BD514D51ED527D531D59A
:103F04003AD543D54DD556D55FD569D572D57BD530
:103F140085D58ED598D5A1D5AAD5B4D5BDD5C6D5C8
:103F2400D0D5D9D5E2D5EBD5F5D5FED507D611D662
:103F34001AD623D62DD636D63FD648D652D65BD6F9
:103F440064D66ED677D680D689D693D69CD6A5D697
:103F5400AED6B8D6C1D6CAD6D3D6DDD6E6D6EFD637
:103F6400F8D601D70BD714D71DD726D72FD739D7D3
:103F740042D74BD754D75DD767D770D779D782D775
:103F84008BD795D79ED7A7D7B0D7B9D7C2D7CBD71A
:103F9400D5D7DED7E7D7F0D7F9D702D80BD814D8BE
:103FA4001ED827D830D839D842D84BD854D85DD861
:103FB40066D86FD879D882D88BD894D89DD8A6D80B
:103FC400AFD8B8D8C1D8CAD8D3D8DCD8E5D8EED8B9
:103FD400F7D800D909D912D91BD925D92ED937D95F
:103FE40040D949D952D95BD964D96DD976D97FD909
:103FF40087D990D999D9A2D9ABD9B4D9BDD9C6D9C1
:10400400CFD9D8D9E1D9EAD9F3D9FCD905DA0EDA6E
:1040140017DA20DA29DA32DA3ADA43DA4CDA55DA1C
:104024005EDA67DA70DA79DA82DA8BDA93DA9CDAD2
:10403400A5DAAEDAB7DAC0DAC9DAD1DADADAE3DA8B
:10404400ECDAF5DAFEDA07DB0FDB18DB21DB2ADB3F
:1040540033DB3BDB44DB4DDB56DB5FDB67DB70DBF9
:1040640079DB82DB8BDB93DB9CDBA5DBAEDBB7DBB5
:10407400BFDBC8DBD1DBDADBE2DBEBDBF4DBFDDB74
:1040840005DC0EDC17DC1FDC28DC31DC3ADC42DC2E
:104094004BDC54DC5CDC65DC6EDC77DC7FDC88DCF0
:1040A40091DC99DCA2DCABDCB3DCBCDCC5DCCDDCB4
:1040B400D6DCDFDCE7DCF0DCF8DC01DD0ADD12DD78
:1040C4001BDD24DD2CDD35DD3DDD46DD4FDD57DD3B
:1040D40060DD68DD71DD7ADD82DD8BDD93DD9CDD05
:1040E400A5DDADDDB6DDBEDDC7DDCFDDD8DDE0DDD0
:1040F400E9DDF1DDFADD03DE0BDE14DE1CDE25DE98
:104104002DDE36DE3EDE47DE4FDE58DE60DE69DE63
:1041140071DE7ADE82DE8BDE93DE9BDEA4DEACDE35
:10412400B5DEBDDEC6DECEDED7DEDFDEE7DEF0DE08
:10413400F8DE01DF09DF12DF1ADF22DF2BDF33DFD6
:104144003CDF44DF4CDF55DF5DDF66DF6EDF76DFAB
:104154007FDF87DF8FDF98DFA0DFA8DFB1DFB9DF84
:10416400C2DFCADFD2DFDBDFE3DFEBDFF3DFFCDF5D
:1041740004E00CE015E01DE025E02EE036E03EE032
:1041840046E04FE057E05FE068E070E078E080E010
:1041940089E091E099E0A1E0AAE0B2E0BAE0C2E0EF
:1041A400CAE0D3E0DBE0E3E0EBE0F4E0FCE004E1D0
:1041B4000CE114E11DE125E12DE135E13DE145E1AD
:1041C4004EE156E15EE166E16EE176E17EE187E192
:1041D4008FE197E19FE1A7E1AFE1B7E1C0E1C8E179
:1041E400D0E1D8E1E0E1E8E1F0E1F8E100E208E261
:1041F40010E219E221E229E231E239E241E249E244
:1042040051E259E261E269E271E279E281E289E232
:1042140091E299E2A1E2A9E2B1E2B9E2C1E2C9E222
:10422400D1E2D9E2E1E2E9E2F1E2F9E201E309E310
:1042340011E319E321E329E331E339E341E349E3FA
:1042440051E358E360E368E370E378E380E388E3F1
:1042540090E398E3A0E3A7E3AFE3B7E3BFE3C7E3E7
:10426400CFE3D7E3DFE3E6E3EEE3F6E3FEE306E4DE
:104274000EE416E41DE425E42DE435E43DE444E4D1
:104284004CE454E45CE464E46BE473E47BE483E4CE
:104294008BE492E49AE4A2E4AAE4B1E4B9E4C1E4CC
:1042A400C9E4D0E4D8E4E0E4E8E4EFE4F7E4FFE4CC
:1042B40007E50EE516E51EE525E52DE535E53CE5C6
:1042C40044E54CE554E55BE563E56BE572E57AE5C9
:1042D40082E589E591E598E5A0E5A8E5AFE5B7E5D0
:1042E400BFE5C6E5CEE5D5E5DDE5E5E5ECE5F4E5D8
:1042F400FBE503E60BE612E61AE621E629E631E6DB
:1043040038E640E647E64FE656E65EE665E66DE6E5
:1043140074E67CE684E68BE693E69AE6A2E6A9E6F2
:10432400B1E6B8E6C0E6C7E6CFE6D6E6DEE6E5E601
:10433400EDE6F4E6FBE603E70AE712E719E721E70F
:1043440028E730E737E73EE746E74DE755E75CE720
:1043540064E76BE772E77AE781E789E790E797E735
:104364009FE7A6E7ADE7B5E7BCE7C4E7CBE7D2E74D
:10437400DAE7E1E7E8E7F0E7F7E7FEE706E80DE864
:1043840014E81CE823E82AE831E839E840E847E87B
:104394004FE856E85DE864E86CE873E87AE881E899
:1043A40089E890E897E89EE8A6E8ADE8B4E8BBE8B9
:1043B400C3E8CAE8D1E8D8E8DFE8E7E8EEE8F5E8DA
:1043C400FCE803E90BE912E919E920E927E92EE9F8
:1043D40036E93DE944E94BE952E959E961E968E91B
:1043E4006FE976E97DE984E98BE992E999E9A1E944
:1043F400A8E9AFE9B6E9BDE9C4E9CBE9D2E9D9E96D
:10440400E0E9E7E9EEE9F5E9FCE904EA0BEA12EA96
:1044140019EA20EA27EA2EEA35EA3CEA43EA4AEABC
:1044240051EA58EA5FEA66EA6DEA74EA7BEA82EAEC
:1044340089EA90EA96EA9DEAA4EAABEAB2EAB9EA22
:10444400C0EAC7EACEEAD5EADCEAE3EAEAEAF1EA54
:10445400F8EAFEEA05EB0CEB13EB1AEB21EB28EB85
:104464002FEB35EB3CEB43EB4AEB51EB58EB5FEBBB
:1044740065EB6CEB73EB7AEB81EB88EB8EEB95EBF6
:104484009CEBA3EBAAEBB0EBB7EBBEEBC5EBCBEB32
:10449400D2EBD9EBE0EBE7EBEDEBF4EBFBEB02EC6F
:1044A40008EC0FEC16EC1DEC23EC2AEC31EC37ECA9
:1044B4003EEC45EC4CEC52EC59EC60EC66EC6DECEB
:1044C40074EC7AEC81EC88EC8EEC95EC9CECA2EC30
:1044D400A9ECB0ECB6ECBDECC3ECCAECD1ECD7EC77
:1044E400DEECE4ECEBECF2ECF8ECFFEC05ED0CEDBF
:1044F40013ED19ED20ED26ED2DED33ED3AED41ED03
:1045040047ED4EED54ED5BED61ED68ED6EED75ED4F
:104514007BED82ED88ED8FED95ED9CEDA2EDA9ED9F
:10452400AFEDB6EDBCEDC3EDC9EDD0EDD6EDDCEDF0
:10453400E3EDE9EDF0EDF6EDFDED03EE0AEE10EE40
:1045440016EE1DEE23EE2AEE30EE36EE3DEE43EE91
:104554004AEE50EE56EE5DEE63EE69EE70EE76EEE8
:104564007CEE83EE89EE8FEE96EE9CEEA2EEA9EE43
:10457400AFEEB5EEBCEEC2EEC8EECFEED5EEDBEE9E
:10458400E1EEE8EEEEEEF4EEFAEE01EF07EF0DEFFA
:1045940013EF1AEF20EF26EF2CEF33EF39EF3FEF55
:1045A40045EF4BEF52EF58EF5EEF64EF6AEF71EFB8
:1045B40077EF7DEF83EF89EF8FEF96EF9CEFA2EF1C
:1045C400A8EFAEEFB4EFBBEFC1EFC7EFCDEFD3EF82
:1045D400D9EFDFEFE5EFEBEFF2EFF8EFFEEF04F0EA
:1045E4000AF010F016F01CF022F028F02EF034F04F
:1045F4003AF040F046F04CF052F058F05FF065F0BD
:104604006BF071F077F07DF083F089F08FF094F027
:104614009AF0A0F0A6F0ACF0B2F0B8F0BEF0C4F09E
:10462400CAF0D0F0D6F0DCF0E2F0E8F0EEF0F4F00E
:10463400FAF0FFF005F10BF111F117F11DF123F17F
:1046440029F12FF134F13AF140F146F14CF152F1F4
:1046540057F15DF163F169F16FF175F17AF180F170
:1046640086F18CF192F197F19DF1A3F1A9F1AFF1EB
:10467400B4F1BAF1C0F1C6F1CBF1D1F1D7F1DDF16A
:10468400E2F1E8F1EEF1F4F1F9F1FFF105F20AF2E9
:1046940010F216F21CF221F227F22DF232F238F265
:1046A4003EF243F249F24FF254F25AF260F265F2EA
:1046B4006BF270F276F27CF281F287F28DF292F272
:1046C40098F29DF2A3F2A8F2AEF2B4F2B9F2BFF2FC
:1046D400C4F2CAF2CFF2D5F2DBF2E0F2E6F2EBF288
:1046E400F1F2F6F2FCF201F307F30CF312F317F311
:1046F4001DF322F328F32DF333F338F33EF343F39E
:1047040049F34EF354F359F35EF364F369F36FF32F
:1047140074F37AF37FF384F38AF38FF395F39AF3C4
:104724009FF3A5F3AAF3B0F3B5F3BAF3C0F3C5F35B
:10473400CAF3D0F3D5F3DAF3E0F3E5F3EAF3F0F3F5
:10474400F5F3FAF300F405F40AF410F415F41AF48A
:1047540020F425F42AF42FF435F43AF43FF444F425
:104764004AF44FF454F459F45FF464F469F46EF4C5
:1047740074F479F47EF483F488F48EF493F498F466
:104784009DF4A2F4A7F4ADF4B2F4B7F4BCF4C1F40C
:10479400C6F4CCF4D1F4D6F4DBF4E0F4E5F4EAF4B2
:1047A400EFF4F5F4FAF4FFF404F509F50EF513F556
:1047B40018F51DF522F527F52CF532F537F53CF5FE
:1047C40041F546F54BF550F555F55AF55FF564F5A9
:1047D40069F56EF573F578F57DF582F587F58CF559
:1047E40091F596F59BF5A0F5A5F5AAF5AEF5B3F50B
:1047F400B8F5BDF5C2F5C7F5CCF5D1F5D6F5DBF5C1
:10480400E0F5E5F5E9F5EEF5F3F5F8F5FDF502F675
:1048140007F60CF610F615F61AF61FF624F629F626
:104824002DF632F637F63CF641F646F64AF64FF6E2
:1048340054F659F65DF662F667F66CF671F675F69F
:104844007AF67FF684F688F68DF692F697F69BF65E
:10485400A0F6A5F6A9F6AEF6B3F6B8F6BCF6C1F620
:10486400C6F6CAF6CFF6D4F6D8F6DDF6E2F6E6F6E4
:10487400EBF6F0F6F4F6F9F6FEF602F707F70BF7A7
:1048840010F715F719F71EF722F727F72CF730F76B
:1048940035F739F73EF742F747F74CF750F755F736
:1048A40059F75EF762F767F76BF770F774F779F704
:1048B4007DF782F786F78BF78FF794F798F79DF7D4
:1048C400A1F7A6F7AAF7AFF7B3F7B8F7BCF7C0F7A5
:1048D400C5F7C9F7CEF7D2F7D7F7DBF7DFF7E4F779
:1048E400E8F7EDF7F1F7F5F7FAF7FEF703F807F84D
:1048F4000BF810F814F818F81DF821F825F82AF820
:104904002EF832F837F83BF83FF844F848F84CF8FA
:1049140050F855F859F85DF862F866F86AF86EF8D8
:1049240073F877F87BF87FF884F888F88CF890F8B7
:1049340094F899F89DF8A1F8A5F8A9F8AEF8B2F89A
:10494400B6F8BAF8BEF8C3F8C7F8CBF8CFF8D3F87E
:10495400D7F8DBF8E0F8E4F8E8F8ECF8F0F8F4F865
:10496400F8F8FCF801F905F909F90DF911F915F947
:1049740019F91DF921F925F929F92DF931F935F933
:1049840039F93DF941F945F94AF94EF952F956F91F
:104994005AF95EF962F966F969F96DF971F975F90F
:1049A40079F97DF981F985F989F98DF991F995F903
:1049B40099F99DF9A1F9A5F9A9F9ACF9B0F9B4F9F6
:1049C400B8F9BCF9C0F9C4F9C8F9CCF9CFF9D3F9ED
:1049D400D7F9DBF9DFF9E3F9E6F9EAF9EEF9F2F9E7
:1049E400F6F9FAF9FDF901FA05FA09FA0DFA10FADD
:1049F40014FA18FA1CFA1FFA23FA27FA2BFA2EFAD9
:104A040032FA36FA3AFA3DFA41FA45FA49FA4CFAD8
:104A140050FA54FA57FA5BFA5FFA62FA66FA6AFADB
:104A24006DFA71FA75FA78FA7CFA80FA83FA87FAE1
:104A34008BFA8EFA92FA95FA99FA9DFAA0FAA4FAE8
:104A4400A7FAABFAAFFAB2FAB6FAB9FABDFAC1FAF2
:104A5400C4FAC8FACBFACFFAD2FAD6FAD9FADDFAFE
:104A6400E0FAE4FAE7FAEBFAEEFAF2FAF5FAF9FA0E
:104A7400FCFA00FB03FB07FB0AFB0EFB11FB15FB17
:104A840018FB1CFB1FFB22FB26FB29FB2DFB30FB29
:104A940033FB37FB3AFB3EFB41FB44FB48FB4BFB40
:104AA4004FFB52FB55FB59FB5CFB5FFB63FB66FB57
:104AB40069FB6DFB70FB73FB77FB7AFB7DFB81FB72
:104AC40084FB87FB8AFB8EFB91FB94FB98FB9BFB8F
:104AD4009EFBA1FBA5FBA8FBABFBAEFBB2FBB5FBAE
:104AE400B8FBBBFBBEFBC2FBC5FBC8FBCBFBCEFBD1
:104AF400D2FBD5FBD8FBDBFBDEFBE2FBE5FBE8FBF3
:104B0400EBFBEEFBF1FBF4FBF8FBFBFBFEFB01FC18
:104B140004FC07FC0AFC0DFC10FC14FC17FC1AFC3A
:104B24001DFC20FC23FC26FC29FC2CFC2FFC32FC65
:104B340035FC38FC3BFC3EFC41FC44FC47FC4AFC95
:104B44004DFC50FC53FC56FC59FC5CFC5FFC62FCC5
:104B540065FC68FC6BFC6EFC71FC74FC77FC7AFCF5
:104B64007DFC80FC82FC85FC88FC8BFC8EFC91FC2B
:104B740094FC97FC9AFC9DFC9FFCA2FCA5FCA8FC61
:104B8400ABFCAEFCB0FCB3FCB6FCB9FCBCFCBFFC9B
:104B9400C1FCC4FCC7FCCAFCCDFCCFFCD2FCD5FCD8
:104BA400D8FCDBFCDDFCE0FCE3FCE6FCE8FCEBFC15
:104BB400EEFCF1FCF3FCF6FCF9FCFBFCFEFC01FD55
:104BC40004FD06FD09FD0CFD0EFD11FD14FD16FD91
:104BD40019FD1CFD1EFD21FD24FD26FD29FD2BFDD7
:104BE4002EFD31FD33FD36FD39FD3BFD3EFD40FD1F
:104BF40043FD45FD48FD4BFD4DFD50FD52FD55FD6A
:104C040057FD5AFD5CFD5FFD62FD64FD67FD69FDB6
:104C14006CFD6EFD71FD73FD76FD78FD7BFD7DFD04
:104C240080FD82FD84FD87FD89FD8CFD8EFD91FD57
:104C340093FD96FD98FD9AFD9DFD9FFDA2FDA4FDAB
:104C4400A6FDA9FDABFDAEFDB0FDB2FDB5FDB7FD02
:104C5400B9FDBCFDBEFDC1FDC3FDC5FDC8FDCAFD5A
:104C6400CCFDCEFDD1FDD3FDD5FDD8FDDAFDDCFDB7
:104C7400DFFDE1FDE3FDE5FDE8FDEAFDECFDEEFD14
:104C8400F1FDF3FDF5FDF7FDFAFDFCFDFEFD00FE73
:104C940002FE05FE07FE09FE0BFE0DFE10FE12FECF
:104CA40014FE16FE18FE1AFE1DFE1FFE21FE23FE34
:104CB40025FE27FE29FE2CFE2EFE30FE32FE34FE9B
:104CC40036FE38FE3AFE3CFE3EFE40FE42FE45FE07
:104CD40047FE49FE4BFE4DFE4FFE51FE53FE55FE70
:104CE40057FE59FE5BFE5DFE5FFE61FE63FE65FEE0
:104CF40067FE69FE6BFE6DFE6FFE71FE73FE75FE50
:104D040077FE78FE7AFE7CFE7EFE80FE82FE84FEC6
:104D140086FE88FE8AFE8CFE8DFE8FFE91FE93FE3B
:104D240095FE97FE99FE9AFE9CFE9EFEA0FEA2FEB4
:104D3400A4FEA6FEA7FEA9FEABFEADFEAFFEB0FE2E
:104D4400B2FEB4FEB6FEB7FEB9FEBBFEBDFEBFFEAC
:104D5400C0FEC2FEC4FEC5FEC7FEC9FECBFECCFE2D
:104D6400CEFED0FED2FED3FED5FED7FED8FEDAFEAE
:104D7400DCFEDDFEDFFEE1FEE2FEE4FEE6FEE7FE33
:104D8400E9FEEAFEECFEEEFEEFFEF1FEF3FEF4FEBB
:104D9400F6FEF7FEF9FEFBFEFCFEFEFEFFFE01FF43
:104DA40002FF04FF05FF07FF09FF0AFF0CFF0DFFC9
:104DB4000FFF10FF12FF13FF15FF16FF18FF19FF57
:104DC4001BFF1CFF1EFF1FFF21FF22FF23FF25FFE8
:104DD40026FF28FF29FF2BFF2CFF2EFF2FFF30FF7C
:104DE40032FF33FF35FF36FF37FF39FF3AFF3BFF12
:104DF4003DFF3EFF40FF41FF42FF44FF45FF46FFAA
:104E040048FF49FF4AFF4CFF4DFF4EFF50FF51FF43
:104E140052FF53FF55FF56FF57FF58FF5AFF5BFFE2
:104E24005CFF5DFF5FFF60FF61FF62FF64FF65FF82
:104E340066FF67FF69FF6AFF6BFF6CFF6DFF6EFF24
:104E440070FF71FF72FF73FF74FF75FF77FF78FFC8
:104E540079FF7AFF7BFF7CFF7DFF7FFF80FF81FF6F
:104E640082FF83FF84FF85FF86FF87FF88FF89FF1A
:104E74008AFF8CFF8DFF8EFF8FFF90FF91FF92FFC3
:104E840093FF94FF95FF96FF97FF98FF99FF9AFF72
:104E94009BFF9CFF9DFF9EFF9FFFA0FFA1FFA2FF22
:104EA400A2FFA3FFA4FFA5FFA6FFA7FFA8FFA9FFDA
:104EB400AAFFABFFACFFADFFADFFAEFFAFFFB0FF8E
:104EC400B1FFB2FFB3FFB4FFB4FFB5FFB6FFB7FF46
:104ED400B8FFB9FFB9FFBAFFBBFFBCFFBDFFBDFF01
:104EE400BEFFBFFFC0FFC1FFC1FFC2FFC3FFC4FFBE
:104EF400C4FFC5FFC6FFC7FFC7FFC8FFC9FFCAFF7E
:104F0400CAFFCBFFCCFFCCFFCDFFCEFFCEFFCFFF40
:104F1400D0FFD0FFD1FFD2FFD2FFD3FFD4FFD4FF05
:104F2400D5FFD6FFD6FFD7FFD8FFD8FFD9FFD9FFCB
:104F3400DAFFDBFFDBFFDCFFDCFFDDFFDDFFDEFF95
:104F4400DFFFDFFFE0FFE0FFE1FFE1FFE2FFE2FF61
:104F5400E3FFE3FFE4FFE4FFE5FFE5FFE6FFE6FF31
:104F6400E7FFE7FFE8FFE8FFE9FFE9FFEAFFEAFF01
:104F7400EBFFEBFFEBFFECFFECFFEDFFEDFFEEFFD4
:104F8400EEFFEEFFEFFFEFFFF0FFF0FFF0FFF1FFAA
:104F9400F1FFF1FFF2FFF2FFF3FFF3FFF3FFF4FF82
:104FA400F4FFF4FFF5FFF5FFF5FFF5FFF6FFF6FF5D
:104FB400F6FFF7FFF7FFF7FFF7FFF8FFF8FFF8FF3B
:104FC400F8FFF9FFF9FFF9FFF9FFFAFFFAFFFAFF1B
:104FD400FAFFFBFFFBFFFBFFFBFFFBFFFCFFFCFFFC
:104FE400FCFFFCFFFCFFFCFFFDFFFDFFFDFFFDFFE1
:104FF400FDFFFDFFFDFFFDFFFEFFFEFFFEFFFEFFC9
:10500400FEFFFEFFFEFFFEFFFEFFFEFFFFFFFFFFB2
:10501400FFFFFFFFFFFFFFFFFFFFFFFFFFFFFFFF9C
:10502400FFFFFFFFFFFFFFFFFFFFFFFFFFFFFFFF8C
:10503400FFFFFFFFFFFFFFFFFFFFFFFFFFFFFFFF7C
:10504400FFFFFFFFFFFFFEFFFEFFFEFFFEFFFEFF71
:10505400FEFFFEFFFEFFFEFFFEFFFDFFFDFFFDFF67
:10506400FDFFFDFFFDFFFDFFFDFFFCFFFCFFFCFF5F
:10507400FCFFFCFFFCFFFBFFFBFFFBFFFBFFFBFF59
:10508400FAFFFAFFFAFFFAFFF9FFF9FFF9FFF9FF58
:10509400F8FFF8FFF8FFF8FFF7FFF7FFF7FFF7FF58
:1050A400F6FFF6FFF6FFF5FFF5FFF5FFF5FFF4FF5A
:1050B400F4FFF4FFF3FFF3FFF3FFF2FFF2FFF1FF5E
:1050C400F1FFF1FFF0FFF0FFF0FFEFFFEFFFEEFF66
:1050D400EEFFEEFFEDFFEDFFECFFECFFEBFFEBFF70
:1050E400EBFFEAFFEAFFE9FFE9FFE8FFE8FFE7FF7C
:1050F400E7FFE6FFE6FFE5FFE5FFE4FFE4FFE3FF8C
:10510400E3FFE2FFE2FFE1FFE1FFE0FFE0FFDFFF9B
:10511400DFFFDEFFDDFFDDFFDCFFDCFFDBFFDBFFAE
:10512400DAFFD9FFD9FFD8FFD8FFD7FFD6FFD6FFC4
:10513400D5FFD4FFD4FFD3FFD2FFD2FFD1FFD0FFDE
:10514400D0FFCFFFCEFFCEFFCDFFCCFFCCFFCBFFF8
:10515400CAFFCAFFC9FFC8FFC7FFC7FFC6FFC5FF15
:10516400C4FFC4FFC3FFC2FFC1FFC1FFC0FFBFFF35
:10517400BEFFBDFFBDFFBCFFBBFFBAFFB9FFB9FF58
:10518400B8FFB7FFB6FFB5FFB4FFB4FFB3FFB2FF7C
:10519400B1FFB0FFAFFFAEFFADFFADFFACFFABFFA4
:1051A400AAFFA9FFA8FFA7FFA6FFA5FFA4FFA3FFCF
:1051B400A2FFA2FFA1FFA0FF9FFF9EFF9DFF9CFFF8
:1051C4009BFF9AFF99FF98FF97FF96FF95FF94FF27
:1051D40093FF92FF91FF90FF8FFF8EFF8DFF8CFF57
:1051E4008AFF89FF88FF87FF86FF85FF84FF83FF8F
:1051F40082FF81FF80FF7FFF7DFF7CFF7BFF7AFFC3
:1052040079FF78FF77FF75FF74FF73FF72FF71FFFB
:1052140070FF6EFF6DFF6CFF6BFF6AFF69FF67FF36
:1052240066FF65FF64FF62FF61FF60FF5FFF5DFF74
:105234005CFF5BFF5AFF58FF57FF56FF55FF53FFB4
:1052440052FF51FF50FF4EFF4DFF4CFF4AFF49FFF5
:1052540048FF46FF45FF44FF42FF41FF40FF3EFF3A
:105264003DFF3BFF3AFF39FF37FF36FF35FF33FF82
:1052740032FF30FF2FFF2EFF2CFF2BFF29FF28FFCB
:1052840026FF25FF23FF22FF21FF1FFF1EFF1CFF18
:105294001BFF19FF18FF16FF15FF13FF12FF10FF66
:1052A4000FFF0DFF0CFF0AFF09FF07FF05FF04FFB7
:1052B40002FF01FFFFFEFEFEFCFEFBFEF9FEF7FE11
:1052C400F6FEF4FEF3FEF1FEEFFEEEFEECFEEAFE69
:1052D400E9FEE7FEE6FEE4FEE2FEE1FEDFFEDDFEC1
:1052E400DCFEDAFED8FED7FED5FED3FED2FED0FE1B
:1052F400CEFECCFECBFEC9FEC7FEC5FEC4FEC2FE7A
:10530400C0FEBFFEBDFEBBFEB9FEB7FEB6FEB4FED8
:10531400B2FEB0FEAFFEADFEABFEA9FEA7FEA6FE3A
:10532400A4FEA2FEA0FE9EFE9CFE9AFE99FE97FE9F
:1053340095FE93FE91FE8FFE8DFE8CFE8AFE88FE06
:1053440086FE84FE82FE80FE7EFE7CFE7AFE78FE71
:1053540077FE75FE73FE71FE6FFE6DFE6BFE69FED9
:1053640067FE65FE63FE61FE5FFE5DFE5BFE59FE49
:1053740057FE55FE53FE51FE4FFE4DFE4BFE49FEB9
:1053840047FE45FE42FE40FE3EFE3CFE3AFE38FE2F
:1053940036FE34FE32FE30FE2EFE2CFE29FE27FEA3
:1053A40025FE23FE21FE1FFE1DFE1AFE18FE16FE1C
:1053B40014FE12FE10FE0DFE0BFE09FE07FE05FE96
:1053C40002FE00FEFEFDFCFDFAFDF7FDF5FDF3FD1A
:1053D400F1FDEEFDECFDEAFDE8FDE5FDE3FDE1FD9B
:1053E400DFFDDCFDDAFDD8FDD5FDD3FDD1FDCEFD1D
:1053F400CCFDCAFDC8FDC5FDC3FDC1FDBEFDBCFDA0
:10540400B9FDB7FDB5FDB2FDB0FDAEFDABFDA9FD27
:10541400A6FDA4FDA2FD9FFD9DFD9AFD98FD96FDB0
:1054240093FD91FD8EFD8CFD89FD87FD84FD82FD3C
:1054340080FD7DFD7BFD78FD76FD73FD71FD6EFDC8
:105444006CFD69FD67FD64FD62FD5FFD5CFD5AFD59
:1054540057FD55FD52FD50FD4DFD4BFD48FD45FDED
:1054640043FD40FD3EFD3BFD39FD36FD33FD31FD81
:105474002EFD2BFD29FD26FD24FD21FD1EFD1CFD19
:1054840019FD16FD14FD11FD0EFD0CFD09FD06FDB3
:1054940004FD01FDFEFCFBFCF9FCF6FCF3FCF1FC55
:1054A400EEFCEBFCE8FCE6FCE3FCE0FCDDFCDBFCF6
:1054B400D8FCD5FCD2FCCFFCCDFCCAFCC7FCC4FC98
:1054C400C1FCBFFCBCFCB9FCB6FCB3FCB0FCAEFC3C
:1054D400ABFCA8FCA5FCA2FC9FFC9DFC9AFC97FCE1
:1054E40094FC91FC8EFC8BFC88FC85FC82FC80FC8B
:1054F4007DFC7AFC77FC74FC71FC6EFC6BFC68FC34
:1055040065FC62FC5FFC5CFC59FC56FC53FC50FCE3
:105514004DFC4AFC47FC44FC41FC3EFC3BFC38FC93
:1055240035FC32FC2FFC2CFC29FC26FC23FC20FC43
:105534001DFC1AFC17FC14FC10FC0DFC0AFC07FCF7
:1055440004FC01FCFEFBFBFBF8FBF4FBF1FBEEFBB4
:10555400EBFBE8FBE5FBE2FBDEFBDBFBD8FBD5FB6F
:10556400D2FBCEFBCBFBC8FBC5FBC2FBBEFBBBFB2C
:10557400B8FBB5FBB2FBAEFBABFBA8FBA5FBA1FBE9
:105584009EFB9BFB98FB94FB91FB8EFB8AFB87FBAA
:1055940084FB81FB7DFB7AFB77FB73FB70FB6DFB6C
:1055A40069FB66FB63FB5FFB5CFB59FB55FB52FB32
:1055B4004FFB4BFB48FB44FB41FB3EFB3AFB37FBF9
:1055C40033FB30FB2DFB29FB26FB22FB1FFB1CFBC3
:1055D40018FB15FB11FB0EFB0AFB07FB03FB00FB8F
:1055E400FCFAF9FAF5FAF2FAEEFAEBFAE7FAE4FA67
:1055F400E0FADDFAD9FAD6FAD2FACFFACBFAC8FA37
:10560400C4FAC1FABDFAB9FAB6FAB2FAAFFAABFA09
:10561400A7FAA4FAA0FA9DFA99FA95FA92FA8EFAE0
:105624008BFA87FA83FA80FA7CFA78FA75FA71FAB7
:105634006DFA6AFA66FA62FA5FFA5BFA57FA54FA92
:1056440050FA4CFA49FA45FA41FA3DFA3AFA36FA6E
:1056540032FA2EFA2BFA27FA23FA1FFA1CFA18FA4E
:1056640014FA10FA0DFA09FA05FA01FAFDF9FAF931
:10567400F6F9F2F9EEF9EAF9E6F9E3F9DFF9DBF91B
:10568400D7F9D3F9CFF9CCF9C8F9C4F9C0F9BCF901
:10569400B8F9B4F9B0F9ACF9A9F9A5F9A1F99DF9EA
:1056A40099F995F991F98DF989F985F981F97DF9D6
:1056B40079F975F971F96DF969F966F962F95EF9C3
:1056C4005AF956F952F94EF94AF945F941F93DF9B1
:1056D40039F935F931F92DF929F925F921F91DF9A6
:1056E40019F915F911F90DF909F905F901F9FCF898
:1056F400F8F8F4F8F0F8ECF8E8F8E4F8E0F8DBF897
:10570400D7F8D3F8CFF8CBF8C7F8C3F8BEF8BAF88F
:10571400B6F8B2F8AEF8A9F8A5F8A1F89DF899F88A
:1057240094F890F88CF888F884F87FF87BF877F888
:1057340073F86EF86AF866F862F85DF859F855F887
:1057440050F84CF848F844F83FF83BF837F832F88A
:105754002EF82AF825F821F81DF818F814F810F88E
:105764000BF807F803F8FEF7FAF7F5F7F1F7EDF79A
:10577400E8F7E4F7DFF7DBF7D7F7D2F7CEF7C9F7A7
:10578400C5F7C0F7BCF7B8F7B3F7AFF7AAF7A6F7B2
:10579400A1F79DF798F794F78FF78BF786F782F7C1
:1057A4007DF779F774F770F76BF767F762F75EF7D1
:1057B40059F755F750F74CF747F742F73EF739F7E3
:1057C40035F730F72CF727F722F71EF719F715F7F7
:1057D40010F70BF707F702F7FEF6F9F6F4F6F0F612
:1057E400EBF6E6F6E2F6DDF6D8F6D4F6CFF6CAF630
:1057F400C6F6C1F6BCF6B8F6B3F6AEF6A9F6A5F64B
:10580400A0F69BF697F692F68DF688F684F67FF668
:105814007AF675F671F66CF667F662F65DF659F689
:1058240054F64FF64AF646F641F63CF637F632F6AB
:105834002DF629F624F61FF61AF615F610F60CF6D0
:1058440007F602F6FDF5F8F5F3F5EEF5E9F5E5F5FD
:10585400E0F5DBF5D6F5D1F5CCF5C7F5C2F5BDF528
:10586400B8F5B3F5AEF5AAF5A5F5A0F59BF596F553
:1058740091F58CF587F582F57DF578F573F56EF580
:1058840069F564F55FF55AF555F550F54BF546F5B0
:1058940041F53CF537F532F52CF527F522F51DF5E4
:1058A40018F513F50EF509F504F5FFF4FAF4F5F41B
:1058B400EFF4EAF4E5F4E0F4DBF4D6F4D1F4CCF458
:1058C400C6F4C1F4BCF4B7F4B2F4ADF4A7F4A2F492
:1058D4009DF498F493F48EF488F483F47EF479F4CC
:1058E40074F46EF469F464F45FF459F454F44FF40A
:1058F4004AF444F43FF43AF435F42FF42AF425F44A
:1059040020F41AF415F410F40AF405F400F4FAF38C
:10591400F5F3F0F3EAF3E5F3E0F3DAF3D5F3D0F3D8
:10592400CAF3C5F3C0F3BAF3B5F3B0F3AAF3A5F31E
:105934009FF39AF395F38FF38AF384F37FF37AF367
:1059440074F36FF369F364F35EF359F354F34EF3B2
:1059540049F343F33EF338F333F32DF328F322F3FF
:105964001DF317F312F30CF307F301F3FCF2F6F251
:10597400F1F2EBF2E6F2E0F2DBF2D5F2CFF2CAF2A8
:10598400C4F2BFF2B9F2B4F2AEF2A8F2A3F29DF2FD
:1059940098F292F28DF287F281F27CF276F270F252
:1059A4006BF265F260F25AF254F24FF249F243F2AA
:1059B4003EF238F232F22DF227F221F21CF216F204
:1059C40010F20AF205F2FFF1F9F1F4F1EEF1E8F167
:1059D400E2F1DDF1D7F1D1F1CBF1C6F1C0F1BAF1C9
:1059E400B4F1AFF1A9F1A3F19DF197F192F18CF12A
:1059F40086F180F17AF175F16FF169F163F15DF18E
:105A040057F152F14CF146F140F13AF134F12FF1F2
:105A140029F123F11DF117F111F10BF105F1FFF05B
:105A2400FAF0F4F0EEF0E8F0E2F0DCF0D6F0D0F0CA
:105A3400CAF0C4F0BEF0B8F0B2F0ACF0A6F0A0F03A
:105A44009AF094F08FF089F083F07DF077F071F0A4
:105A54006BF065F05FF058F052F04CF046F040F017
:105A64003AF034F02EF028F022F01CF016F010F08A
:105A74000AF004F0FEEFF8EFF2EFEBEFE5EFDFEF03
:105A8400D9EFD3EFCDEFC7EFC1EFBBEFB4EFAEEF7C
:105A9400A8EFA2EF9CEF96EF8FEF89EF83EF7DEFF6
:105AA40077EF71EF6AEF64EF5EEF58EF52EF4BEF71
:105AB40045EF3FEF39EF33EF2CEF26EF20EF1AEFEE
:105AC40013EF0DEF07EF01EFFAEEF4EEEEEEE8EE72
