:020000040800F2
:100000000000022019350008DD340008DF34000844
:10001000E1340008E3340008E53400080000000083
:10002000000000000000000000000000E7340008AD
:10003000E934000800000000EB340008ED3400084B
:100040006935000869350008693500086935000818
:100050006935000869350008693500086935000808
:1000600069350008693500086935000869350008F8
:1000700069350008693500086935000869350008E8
:10008000F134000869350008693500086935000851
:1000900069350008693500086935000869350008C8
:1000A00069350008693500086935000869350008B8
:1000B00069350008693500086935000869350008A8
:1000C0006935000869350008693500086935000898
:1000D0006935000869350008693500086935000888
:1000E0006935000869350008693500086935000878
:1000F0006935000869350008693500086935000868
:100100006935000869350008693500086935000857
:100110006935000869350008693500086935000847
:100120006935000869350008693500086935000837
:100130006935000869350008693500086935000827
:100140006935000869350008693500086935000817
:100150006935000869350008693500086935000807
:1001600069350008693500086935000869350008F7
:10017000693500086935000869350008000000008D
:0801800069350008693500082B
:1001880010B5054C237833B9044B13B10448AFF3C9
:1001980000800123237010BD0C0000200000000027
:1001A800C435000808B5034B1BB103490348AFF336
:1001B800008008BD0000000010000020C4350008C1
:1001C80081F0004102E000BF83F0004330B54FEA00
:1001D80041044FEA430594EA050F08BF90EA020F6D
:1001E8001FBF54EA000C55EA020C7FEA645C7FEA00
:1001F800655C00F0E2804FEA5454D4EB5555B8BF23
:100208006D420CDD2C4480EA020281EA030382EA93
:10021800000083EA010180EA020281EA0303362D25
:1002280088BF30BD11F0004F4FEA01314FF4801CF8
:100238004CEA113102D0404261EB410113F0004F0A
:100248004FEA03334CEA133302D0524263EB4303C1
:1002580094EA050F00F0A780A4F10104D5F1200E5F
:100268000DDB02FA0EFC22FA05F2801841F10001BA
:1002780003FA0EF2801843FA05F359410EE0A5F18E
:1002880020050EF1200E012A03FA0EFC28BF4CF0BF
:10029800020C43FA05F3C01851EBE37101F0004575
:1002A80007D54FF0000EDCF1000C7EEB00006EEB82
:1002B8000101B1F5801F1BD3B1F5001F0CD349080C
:1002C8005FEA30004FEA3C0C04F101044FEA445263
:1002D80012F5800F80F09A80BCF1004F08BF5FEAEA
:1002E800500C50F1000041EB045141EA050130BDCA
:1002F8005FEA4C0C404141EB010111F4801FA4F16D
:100308000104E9D191F0000F04BF01460020B1FAC1
:1003180081F308BF2033A3F10B03B3F120020CDAF9
:100328000C3208DD02F1140CC2F10C0201FA0CF0D7
:1003380021FA02F10CE002F11402D8BFC2F1200C3C
:1003480001FA02F120FA0CFCDCBF41EA0C019040F2
:10035800E41AA2BF01EB0451294330BD6FEA04043B
:100368001F3C1CDA0C340EDC04F11404C4F1200226
:1003780020FA04F001FA02F340EA030021FA04F338
:1003880045EA030130BDC4F10C04C4F1200220FA8F
:1003980002F001FA04F340EA0300294630BD21FACD
:1003A80004F0294630BD94F0000F83F4801306BF93
:1003B80081F480110134013D4EE77FEA645C18BF87
:1003C8007FEA655C29D094EA050F08BF90EA020F1E
:1003D80005D054EA000C04BF1946104630BD91EA16
:1003E800030F1EBF0021002030BD5FEA545C05D119
:1003F8004000494128BF41F0004130BD14F5800458
:100408003CBF01F5801130BD01F0004545F0FE41CB
:1004180041F470014FF0000030BD7FEA645C1ABF00
:10042800194610467FEA655C1CBF0B46024650EA37
:10043800013406BF52EA033591EA030F41F4002163
:1004480030BD00BF90F0000F04BF0021704730B5E9
:100458004FF4806404F132044FF000054FF00001BE
:1004680050E700BF90F0000F04BF0021704730B57F
:100478004FF4806404F1320410F0004548BF404254
:100488004FF000013EE700BF42004FEAE2014FEAA9
:1004980031014FEA02701FBF12F07F4393F07F4F84
:1004A80081F06051704792F0000F14BF93F07F4FB6
:1004B800704730B54FF4607401F0004521F00041F9
:1004C80020E700BF50EA010208BF704730B54FF07F
:1004D80000050AE050EA010208BF704730B511F084
:1004E800004502D5404261EB41014FF4806404F1BC
:1004F80032045FEA915C3FF4DCAE4FF003025FEA3E
:10050800DC0C18BF03325FEADC0C18BF033202EBC5
:10051800DC02C2F1200300FA03FC20FA02F001FA1F
:1005280003FE40EA0E0021FA02F11444C1E600BFBE
:1005380070B54FF0FF0C4CF4E06C1CEA11541DBF71
:100548001CEA135594EA0C0F95EA0C0F00F0DEF83C
:100558002C4481EA030621EA4C5123EA4C5350EA21
:10056800013518BF52EA033541F4801143F4801372
:1005780038D0A0FB02CE4FF00005E1FB02E506F003
:100588000042E0FB03E54FF00006E1FB03569CF058
:10059800000F18BF4EF0010EA4F1FF04B6F5007F5E
:1005A80064F5407404D25FEA4E0E6D4146EB0606D0
:1005B80042EAC62141EA55514FEAC52040EA5E5059
:1005C8004FEACE2EB4F1FD0C88BFBCF5E06F1ED803
:1005D800BEF1004F08BF5FEA500E50F1000041EB3A
:1005E800045170BD06F0004646EA010140EA0200E7
:1005F80081EA0301B4EB5C04C2BFD4EB0C0541EA09
:10060800045170BD41F480114FF0000E013C00F31D
:10061800AB8014F1360FDEBF002001F0004170BD41
:10062800C4F10004203C35DA0C341BDC04F114045A
:10063800C4F1200500FA05F320FA04F001FA05F2E6
:1006480040EA020001F0004221F0004110EBD370B3
:1006580021FA04F642EB06015EEA430E08BF20EADF
:10066800D37070BDC4F10C04C4F1200500FA04F382
:1006780020FA05F001FA04F240EA020001F0004114
:1006880010EBD37041F100015EEA430E08BF20EA87
:10069800D37070BDC4F1200500FA05F24EEA020ECF
:1006A80020FA04F301FA05F243EA020321FA04F0FE
:1006B80001F0004121FA04F220EA020000EBD370B5
:1006C8005EEA430E08BF20EAD37070BD94F0000FB5
:1006D8000FD101F00046400041EB010111F4801FE9
:1006E80008BF013CF7D041EA060195F0000F18BF9A
:1006F800704703F00046520043EB030313F4801FD6
:1007080008BF013DF7D043EA0603704794EA0C0F8F
:100718000CEA135518BF95EA0C0F0CD050EA4106A5
:1007280018BF52EA4306D1D181EA030101F0004122
:100738004FF0000070BD50EA410606BF104619464A
:1007480052EA430619D094EA0C0F02D150EA013656
:1007580013D195EA0C0F05D152EA03361CBF104697
:1007680019460AD181EA030101F0004141F0FE4136
:1007780041F470014FF0000070BD41F0FE4141F4BA
:10078800780170BD70B54FF0FF0C4CF4E06C1CEABA
:1007980011541DBF1CEA135594EA0C0F95EA0C0F6F
:1007A80000F0A7F8A4EB050481EA030E52EA03352A
:1007B8004FEA013100F088804FEA03334FF080554B
:1007C80045EA131343EA12634FEA022245EA111578
:1007D80045EA10654FEA00260EF000419D4208BF29
:1007E800964244F1FD0404F5407402D25B084FEAD6
:1007F8003202B61A65EB03055B084FEA32024FF482
:1008080080104FF4002CB6EB020E75EB030E22BFDE
:10081800B61A754640EA0C005B084FEA3202B6EB9E
:10082800020E75EB030E22BFB61A754640EA5C004D
:100838005B084FEA3202B6EB020E75EB030E22BFDD
:10084800B61A754640EA9C005B084FEA3202B6EBDE
:10085800020E75EB030E22BFB61A754640EADC009D
:1008680055EA060E18D04FEA051545EA16754FEAFF
:1008780006164FEAC30343EA52734FEAC2025FEA1D
:100888001C1CC0D111F4801F0BD141EA00014FF0AC
:1008980000004FF0004CB6E711F4801F04BF01437D
:1008A8000020B4F1FD0C88BFBCF5E06F3FF6AFAE99
:1008B800B5EB030C04BFB6EB020C5FEA500C50F129
:1008C800000041EB045170BD0EF0004E4EEA1131AC
:1008D80014EB5C04C2BFD4EB0C0541EA045170BDB3
:1008E80041F480114FF0000E013C90E645EA060EF7
:1008F8008DE60CEA135594EA0C0F08BF95EA0C0F25
:100908003FF43BAF94EA0C0F0AD150EA01347FF46C
:1009180034AF95EA0C0F7FF425AF104619462CE743
:1009280095EA0C0F06D152EA03353FF4FDAE1046A6
:10093800194622E750EA410618BF52EA43067FF4F7
:10094800C5AE50EA41047FF40DAF52EA43057FF487
:10095800EBAE12E74FEA410212F5001215D211D59B
:100968006FF47873B3EB625212D94FEAC12343F0A4
:10097800004343EA505311F0004F23FA02F018BF26
:10098800404270474FF00000704750EA013005D1EF
:1009980011F0004008BF6FF0004070474FF00000B2
:1009A800704700BF53B94AB9002908BF00281CBFC7
:1009B8004FF0FF314FF0FF3000F07AB9ADF1080C7D
:1009C8006DE904CE00F006F8DDF804E0DDE9022365
:1009D80004B070472DE9F0478C460D460446089E42
:1009E800002B51D18A4217466DD9B2FA82FEBEF168
:1009F800000F0BD0CEF1200C01FA0EF520FA0CFCFA
:100A080002FA0EF74CEA050C00FA0EF44FEA174A00
:100A1800250CBCFBFAF81FFA87F90AFB18CC45EA43
:100A28000C4508FB09F3AB420AD9ED1908F1FF326E
:100A380080F02381AB4240F22081A8F102083D44B6
:100A4800ED1AA4B2B5FBFAF00AFB105544EA0544C6
:100A580000FB09F9A14509D9E41900F1FF3380F039
:100A68000A81A14540F2078102383C44A4EB0904FD
:100A780040EA08400021002E61D024FA0EF4002339
:100A880034607360BDE8F0878B4207D9002E54D0DC
:100A9800002186E821000846BDE8F087B3FA83F113
:100AA800002940F08E80AB4202D3824200F2FA80E5
:100AB800841A65EB03050120AC46002E3FD086E87A
:100AC8001010BDE8F08712B90127B7FBF2F7B7FAA3
:100AD80087FEBEF1000F34D1EB1B3A0C1FFA87FCDE
:100AE8000121B3FBF2F8250C02FB183345EA034554
:100AF8000CFB08F3AB4207D9ED1908F1FF3002D21D
:100B0800AB4200F2D1808046ED1AA3B2B5FBF2F0F9
:100B180002FB105543EA05440CFB00FCA44507D929
:100B2800E41900F1FF3302D2A44500F2B880184658
:100B3800A4EB0C0440EA08409DE731463046BDE886
:100B4800F087CEF1200405FA0EF307FA0EF720FA23
:100B580004F83A0C25FA04F448EA0308B4FBF2F165
:100B68004FEA184502FB11441FFA87FC45EA044581
:100B780001FB0CF3AB4200FA0EF409D9ED1901F1AF
:100B8800FF3080F08A80AB4240F2878002393D44D2
:100B9800EB1A1FFA88F5B3FBF2F002FB103345EAB3
:100BA800034500FB0CF3AB4207D9ED1900F1FF3800
:100BB8006FD2AB426DD902383D44EB1A40EA01418D
:100BC8008FE7C1F1200722FA07F88B4005FA01F4F4
:100BD80048EA030320FA07FE4FEA134CFD404EEAA9
:100BE800040EB5FBFCF94FEA1E440CFB19551FFA1D
:100BF80083F844EA054509FB08F4AC4202FA01F21D
:100C080000FA01FA08D9ED1809F1FF3043D2AC42D5
:100C180041D9A9F102091D442D1B1FFA8EFEB5FB0F
:100C2800FCF00CFB10554EEA054400FB08F8A04503
:100C380007D9E41800F1FF3529D2A04527D9023891
:100C48001C4440EA0940A4EB0804A0FB02894C4577
:100C5800C6464D4615D312D056B1BAEB0E0364EB17
:100C6800050404FA07F7CB401F43CC403760746093
:100C78000021BDE8F0871846F8E69046E0E6C24550
:100C8800EAD2B8EB020E69EB03050138E4E728461F
:100C9800D7E7404691E78146BEE7014678E7023844
:100CA8003C4445E7084608E7A8F102083D442BE71D
:100CB800704700BF38B50E4A0E4B054618784FF4FA
:100CC8007A73B3FBF0F31068B0FBF3F000F096F81A
:100CD800044658B90F2D09D8024629464FF0FF306F
:100CE80000F04AF8044B20461D6038BD012038BD8D
:100CF80008000020000000200400002008B50B4B6D
:100D08001A6842F400721A601A6842F480621A6023
:100D18001A6842F480721A60032000F01BF8002061
:100D2800FFF7C8FF02F0CEFA002008BD003C0240E1
:100D3800034A044B11681B780B441360704700BFCB
:100D48002800002000000020014B1868704700BFF1
:100D580028000020074AD36823F4E0631B041B0C17
:100D680043F0BF63000243F4003300F4E060034340
:100D7800D360704700ED00E0174B30B5DC68C4F372
:100D88000224C4F10703251D042B28BF0423062DC4
:100D98004FF0010505FA03F303F1FF338CBF033C61
:100DA80000241940A14005FA04F4013C224000281F
:100DB80042EA01024FEA0212ADBF00F1604000F0C2
:100DC8000F00064B00F56140B5BFD2B2D2B21A543B
:100DD80080F8002330BD00BF00ED00E014ED00E016
:100DE800002808DB4209012300F01F0003FA00F085
:100DF800014B43F82200704700E100E00138B0F1F0
:100E0800807F0AD2064B074A5860F02182F82310E7
:100E18000020072298601A6070470120704700BFC1
:100E280010E000E000ED00E00368DAB223F47F731D
:100E380023F003031821103AB2FBF1F20449032A04
:100E480088BF0433895C8365C165806D704700BFC6
:100E5800DC35000870B50446FFF776FF0546002C20
:100E680071D0002384F834302268022384F83530A6
:100E7800136823F00103136021680B68D8073CD47A
:100E88000B68324D6268A0691D40A3681343E2688D
:100E980013432269134362691343E269034313430B
:100EA800226A1343626A042A43EA050301BF266BD8
:100EB800E56A35432B430B604B69042A23F007038B
:100EC80043EA02030BD1A26AE56A13433DB1F8B9BC
:100ED800012A2DD001D3022A01D1EA012BD44B617A
:100EE8002046FFF7A1FFE26D3F2393408360002077
:100EF8000123606584F8353070BDFFF725FF401B7E
:100F08000528B9D920236365032084F8350070BD0E
:100F1800B0F5005F13D1032AE1D801A050F822F000
:100F28003F0F0008E30E00083F0F0008390F0008C4
:100F3800B5F1C07FD3D1402363650120E5E7022ADC
:100F4800F9D9032AC8E7012070BD00BF3F8010F01F
:100F580070B590F83440012C32D0012480F8344028
:100F680090F83540866D012C4FF000054FF00204D3
:100F780024D180F8354004684565256825F4802526
:100F8800256063608368402B0EBFA260A160E260A9
:100F9800C26D08BFE1603F239340B360236843F00C
:100FA80016032360036C1BB1236843F00803236016
:100FB800236843F001032360002070BD80F834509B
:100FC800022070BDF7B5002301935A4B856D1F6849
:100FD800C36D2E6808229A40164204460CD0016858
:100FE8000868400708D5086820F004000860AA606F
:100FF800626D42F00102626501229A40164208D0F1
:1010080021684969090641BFAA60626D42F002027F
:10101800626504229A40164208D021680968880748
:1010280041BFAA60626D42F00402626510229A40D4
:10103800164210D02368196809070CD5AA601A68E7
:10104800500335D51B68190301D4236C00E0A36C49
:101058000BB120469847E16D20228A40164238D0CD
:1010680023681868C60634D5AA6094F83520052A7E
:101078001A6825D122F016021A605A6922F08002F5
:101088005A61226C0AB9A26C1AB11A6822F00802D5
:101098001A603F238B40AB60002384F8343001236F
:1010A80084F83530236D0BB12046984703B0F0BD66
:1010B8001A68D2055EBF1A6822F008021A60C4E7EF
:1010C800500328D51B68190332D4636C0BB1204632
:1010D8009847636D002BE9D0636DDA0719D50523AE
:1010E800226884F83530136823F0010313604FF445
:1010F8001653B7FBF3F7019B01339F42019302D3C9
:101108001368DB07F7D4002384F83430012384F80C
:101118003530E36CC7E71A6812F4807208D1196891
:1011280021F010011960012384F8342084F8353047
:10113800E36BCBE7080000202DE9F04F85B00B6882
:10114800DFF8AC81684ADFF8AC91019300230124F1
:10115800019D9C402540AC4240F0B0804C6824F092
:10116800100C0CF1FF36012E4FEA430E12D8876897
:10117800032606FA0EF627EA0607CE6806FA0EF6E2
:101188003E4386604768C4F3001627EA05079E4079
:101198003E4346600326C76806FA0EF6F64307EA9A
:1011A800060A8F6807FA0EF747EA0A07BCF1020F2A
:1011B800C76016D14FEAD30A00EB8A0A03F0070B7F
:1011C800DAF820704FEA8B0B4FF00F0C0CFA0BFC7F
:1011D80027EA0C0C0F6907FA0BF747EA0C07CAF85D
:1011E800207007683E4004F0030707FA0EFE4EEA37
:1011F80006060660E60061D54FF0000BCDF80CB08E
:10120800D8F84470394E47F48047C8F84470D8F885
:10121800447007F480470397039F23F0030707F1FF
:10122800804707F59C3703F0030CD7F808A04FEA6E
:101238008C0C4FF00F0E0EFA0CFEB0422AEA0E0E7E
:1012480043D006F58066B04241D006F58066B042CC
:101258003FD006F58066B0423DD006F58066B042C4
:101268003BD048453BD006F50066B04239D006F57C
:101278008066B04214BF0826072606FA0CF646EA2E
:101288000E06BE601668EF4314F4803F0CBF3E4064
:101298002E431660566814F4003F0CBF3E402E43A0
:1012A8005660966814F4801F0CBF3E402E4396602B
:1012B800D668A40254BF3E402E43D6600133102B9B
:1012C8007FF445AF05B0BDE8F08F5E46D5E701264F
:1012D800D3E70226D1E70326CFE70426CDE7052684
:1012E800CBE70626C9E700BF003C014000000240EA
:1012F80000380240001402400AB1816170470904B5
:10130800FBE701684B6913F480634FF0000210D0CB
:101318006FF480634B612023026380F83D3080F8CE
:101328003E20036C80F83C2043F004030364012052
:101338007047184670472DE9F84304461746994602
:10134800C1F307488EB22568B8F1010F0CBF6B696D
:10135800AB6936EA030314BF0120002008B9BDE8D1
:10136800F8836B695A0516D52B6843F400732B6014
:101378006FF480636B6120220023236384F83D208F
:1013880084F83E30226C42F00402226484F83C3037
:101398000120BDE8F8837B1CD5D0FFF7D5FCA0EB76
:1013A8000900874201D3002FCDD1002320222363D7
:1013B80084F83D2084F83E30226C42F02002E4E7B5
:1013C80070B504460D46164623685B695B0701D570
:1013D800002070BD2046FFF794FFA8B96A1CF3D01F
:1013E800FFF7B2FC801B854201D3002DECD100230E
:1013F8002022236384F83D2084F83E30226C84F850
:101408003C3042F020022264012070BD70B50446D1
:101418000D4616462068436913F0400301D00020AA
:1014280070BD4269D2060ED56FF0100242612022CB
:10143800236384F83D2084F83E30226C226484F8CB
:101448003C30012070BDFFF77FFC801BA84201D80B
:10145800002DDFD100232022236384F83D2084F867
:101468003E30226C42F02002E8E72DE9F843089E5E
:10147800044690461F46C1F307498DB22368B9F167
:10148800010F0CBF5B699B6935EA03030CBF01239D
:101498000023434502D00020BDE8F8837B1CEDD033
:1014A800FFF752FC801B874201D3002FE6D10023AF
:1014B8002022236384F83D2084F83E30226C84F88F
:1014C8003C3042F0200222640120BDE8F88370B568
:1014D80004460D46164623685B691B0601D50020A5
:1014E80070BD2046FFF70DFFA8B96A1CF3D0FFF7BF
:1014F8002BFC801B854201D3002DECD10023202238
:10150800236384F83D2084F83E30226C84F83C3014
:1015180042F020022264012070BD000070B504462C
:1015280008B9012070BD90F83D3003F0FF021BB9E7
:1015380080F83C2001F0E6FE242384F83D3023683F
:101548001A6822F001021A601A6842F400421A600E
:101558001A6822F400421A6001F0C8F86568414B25
:101568009D424DD8404B9842DBD922683F49536889
:10157800B0FBF1F123F03F030B435360136A23F0F0
:101588003F03013119431162D169364B21F44F41B0
:101598009D4221F0FF0100F1FF3048D86D00B0FBFB
:1015A800F5F00130C0F30B03042B38BF04230B43C1
:1015B800D3611168206AE36921F0C00103430B433A
:1015C80013609168E068236921F40341034321F023
:1015D800FF010B439360D168A069636921F0FF01A3
:1015E80003430B43D360136843F0010313600020E7
:1015F8002023206484F83D30206384F83E0070BDC9
:101608001B4B98428DD92268184E5368B0FBF6F6EA
:1016180023F03F0333435360136A4FF496717143C9
:1016280023F03F034FF47A76B1FBF6F1A9E7A368FC
:1016380053B905EB4503B0FBF3F0431CC3F30B03AD
:101648006BB143F40043B2E719236B43B0FBF3F0EB
:10165800431CC3F30B0313B143F44043A7E701232F
:10166800A5E700BFA08601007F841E0040420F004E
:10167800FF083D002DE9FF4104461F460D469046F0
:10168800FFF762FB94F83D30202B064604D0022574
:10169800284604B0BDE8F0810090192301225B4977
:1016A8002046FFF7E2FE0028F1D194F83C30012BE8
:1016B800EDD0012384F83C3023681A68D2075EBF56
:1016C8001A6842F001021A601A6822F400621A606D
:1016D800212284F83D20102284F83E200022226432
:1016E8006785628D22854A4AE262E26AC4F82480EC
:1016F800082A04D0012A02D012F5803F04D11A68C2
:1017080042F480721A6002E0226B122AF7D000229B
:1017180000960A9B4FF001112046FFF7A6FE2268AB
:1017280038B11368DB0544BF4FF400732364012507
:10173800AEE72369B3F5804F13D105F0FE051561B7
:1017480033460A9A33492046FFF7F5FD0546002837
:10175800EDD1236803905A6903929B690393039B15
:1017680044E0EB1103F0060343F0F00313612A4948
:101778000A9A33462046FFF7DEFD0028D7D12368B2
:10178800EDB21D61DCE732460A992046FFF79FFE5D
:1017980040B1236C042B01BF2268136843F4007323
:1017A8001360C4E7636A20681A4612F8011B0161D6
:1017B8006262628D013A92B26285228D4769511E3A
:1017C80089B27F0721850AD549B159780161023369
:1017D8006362638D013B9BB2023A63852285324680
:1017E8000A992046FFF7ECFD0028D2D1238D002B63
:1017F800C9D121680A6842F400720A60202284F87C
:101808003D2084F83C3084F83E3041E70200100067
:101818000000FFFF02000100080001002DE9F0436D
:10182800044689B098460E469146109FFFF78CFAF9
:1018380094F83D30202B054604D00226304609B0E6
:10184800BDE8F0830090192301229B492046FFF749
:101858000CFE0028F1D194F83C30012BEDD0012387
:1018680084F83C3023681A68D2075EBF1A6842F0D1
:1018780001021A601A6822F400621A60222284F8AF
:101888003D20102284F83E2000222264A4F82A80F9
:10189800628D2285894AE262E26A1968C4F8249056
:1018A80041F48061082A196004D0012A02D012F597
:1018B800803F04D11A6842F480721A6002E0226BF9
:1018C800112AF7D03B46009500224FF0011120461F
:1018D800FFF7CBFD236838B11B68D80544BF4FF428
:1018E800007323640126A9E72269B2F5804F40D12D
:1018F80046F00106F6B21E612B463A46704920466C
:10190800FFF719FD06460028ECD1228D2368002A2E
:1019180064D0012A75D11A6822F480621A6004968C
:101928005A6904929A690492049A1A6842F40072F5
:101938001A60DFF89481238D002B59D0032B00F215
:10194800C580012B78D12A4639462046FFF75EFD2F
:101958000028C7D12268636A12691A70636A013362
:101968006362238D013B2385638D013B9BB26385B5
:10197800E1E74FEAE61808F0060848F0F0021A61B5
:1019880050492B463A462046FFF7D5FC0028A9D1F6
:1019980023684B49F6B21E613A462B462046FFF7AC
:1019A800CAFC024600289DD123680790596907910F
:1019B800996907910799196841F48071196020465F
:1019C80000953B464FF00111FFF74FFD226808B123
:1019D800136882E748F0F10313618DE703965A69AB
:1019E80003929A690392039A1A6842F400721A6081
:1019F800202384F83D30002384F83E3084F83C30BE
:101A08001CE7022A1A680DD122F480621A601A684B
:101A180042F400621A6005965A6905929B6905931B
:101A2800059B86E742F480621A6006965A69069218
:101A38009B690693069B7CE7022B00953B464FF07B
:101A48000002414620461AD1FFF70FFD00287FF417
:101A580049AF23681A6842F400721A60626A1B6907
:101A68001370626A531C6362238D013B2385638D67
:101A7800013B9BB2638523681B6953706EE7FFF7D0
:101A8800F4FC024600287FF42DAF2368196821F47E
:101A980080611960616A1B690B70636A0095013384
:101AA8006362238D013B2385638D013B9BB2638574
:101AB80041463B462046C7E7020010000000FFFFF2
:101AC8000200010008000100040001002A4639460E
:101AD8002046FFF79BFC00287FF404AF2268636A66
:101AE80012691A70626A531C6362238D013B238555
:101AF800638D013B9BB263852368596949077FF56C
:101B08001AAFB9E790F83D0070470000F8B50446F1
:101B1800002841D090F8413003F0FF022BB9424B26
:101B280080F84020436301F025FC0221226884F8F4
:101B38004110D36923F47B6323F00F03D3616369F6
:101B480011628B4231D0E368002BA3680CBF1025CB
:101B580020250120202B98BF6D0000F07FFE23690F
:101B68006169B3F5007F1BD1E3680A22B3B1AB000A
:101B7800B0FBF3F353430A22B3FBF1F30533B3FB92
:101B8800F2F303F0010212025B08991EFD290ED937
:101B9800636C43F0100363640120F8BDEB00E7E7D2
:101BA8000A23B0FBF5F04343E5E70022EDE71343D2
:101BB800226921686668E568A069DFF87CE013435C
:101BC8000B62A368CF6946EA030242F400622A4323
:101BD800024307EA0E073A43CA61226A012A1DD165
:101BE800124A6263124F134AB94218BF4FF040229B
:101BF8002B43D16901EA0E01D16102211162D76933
:101C080043F40063034336F4007143EA07030CBF4F
:101C18004FF4807100219BB20B43D3610020012354
:101C2800606484F84130F8BD4B1C0008D91F0008D7
:101C3800003800400034004040F0FFFF7047704714
:101C480070471FB503689A68019290F84120042AEA
:101C5800044636D1019AD10717D55A68520614D5C9
:101C6800C26AD96822F8021BC262428E013A92B255
:101C78004286428E92B242B95A6822F060025A6095
:101C8800012380F84130FFF7DAFF019B590618D588
:101C980023685A68920614D55A6822F060025A607E
:101CA80000220292DA6802929B680293029B012347
:101CB80084F84130636C43F0020363642046FFF705
:101CC800BFFF94F84130032B36D1019B9B0719D5F0
:101CD80022685368180615D5636A33F8021BD16069
:101CE8006362638D013B9BB26385638D9BB24BB985
:101CF800536823F0A0035360012384F84130204641
:101D0800FFF79CFF019B190716D523685A689206AE
:101D180012D55A6822F0A0025A60002203929B68EA
:101D28000393039B012384F84130636C43F004035D
:101D380063642046FFF784FF04B010BD806B0D4933
:101D48000268536823F0030353600B4B8A4218BFA1
:101D58004FF040235A6822F003025A60002343855B
:101D68004386012380F84130436C43F00803436401
:101D7800FFF766BF00380040003400402DE9F3410A
:101D8800044690F84100C0B201280E46154640F0BE
:101D9800B280002961D0002A5FD0002B5DD094F872
:101DA8004020012A00F0A9806162216884F840007F
:101DB800CA69E56202F00702032A01D0052A01D1A7
:101DC8005B009BB22385D4F83CE06385A06B238637
:101DD8000022638605236264DFF834C184F8413049
:101DE800474F484BCEF84C30CEF840C0CEF83C7048
:101DF800C364CB69C0F840C013F4807FC763DFF8C1
:101E08000C813BD1404F238E41450CBF39464FF0E2
:101E180040219BB22A460C317046FFF799F8226898
:101E2800A06B42450CBF39464FF040210C324B683D
:101E380043F001034B60238D31469BB2FFF788F8CE
:101E480023685A6842F002025A60D86910F4806028
:101E580006D00020002384F8403002B0BDE8F081AD
:101E680043450CBF39464FF04021CA6942F48062AD
:101E7800CA61DA6942F48062DA61EBE7CB6903F49C
:101E88004073B3F5407F05D10192CB6801938B680D
:101E98000193019B1C4F238D41450CBF39464FF0E0
:101EA800402101F10C029BB23146FFF751F8174E61
:101EB8002168E06BB1420CBF3A464FF040220C312A
:101EC800536843F002035360238E2A469BB2FFF700
:101ED8003FF823685A6842F001025A60D86910F442
:101EE8008060B6D1B34218BF4FF04027FA6942F478
:101EF8008062FA61BDE70220ACE70220ADE700BFCF
:101F0800291F0008451D0008003400400038004023
:101F18001D1F000808B5806B00F02CFF08BD0000ED
:101F280038B5C369846B0546002B40D1E36B9842F2
:101F380020D12368DA6902F44072B2F5007F03D039
:101F4800DA6912F4407F06D11F4A20498B420CBF40
:101F580013464FF040235A6822F001025A600023CA
:101F68006386638D9BB22BB9012384F841302046E8
:101F780000F00AFFA36B9D4219D12368DA6902F4C5
:101F88004072B2F5007F03D0DA6912F4407F12D1B3
:101F98005A6822F002025A6000236385638E9BB25E
:101FA8002BB9012384F84130204600F0EDFE20468D
:101FB80000F0EAFE38BD044A04498B420CBF1346C0
:101FC8004FF04023E4E700BF0034004000380040F1
:101FD80010B502688B49936886B0044600938A4B13
:101FE8008A4218BF4FF040239968019151680291C5
:101FF80059680391416831F4007140F09080009B6A
:1020080099071AD5029B1B0617D5436A991C1B888A
:102018004162D360438D013B9BB24385438D9BB2A4
:102028005BB9536823F0A0035360438E9BB223B976
:10203800012380F8413000F0A7FE019BD80722D584
:10204800039B59061FD5E26A20686E49931CE36218
:102058006D4B884218BF4FF04023D9681180628EBB
:10206800013A92B26286628E92B262B95A6822F0DE
:1020780060025A60638D9BB22BB9012384F841300A
:10208800204600F081FE019B5A0622D5039B9B0641
:102098001FD523685B495C4A8B4218BF4FF040222A
:1020A8002046516821F0600151605A6822F0A00270
:1020B8005A6000220492DA6804929B680493049B95
:1020C800012384F84130636C43F002036364FFF733
:1020D800B7FD009B180720D5029B99061DD52368DC
:1020E80048495A6822F0A0025A60474A8B4218BFF2
:1020F8004FF04022516821F06001516000220592A2
:102108009B680593059B012384F84130636C43F079
:10211800040363642046FFF793FD06B010BD019ADF
:1021280092071AD5039A110617D5426A911C12888C
:102138004162DA60428D013A92B24285428D92B292
:102148005AB95A6822F0A0025A60438E9BB223B94A
:10215800012380F8413000F017FE009BDA071CD5F8
:10216800029B5B0619D5E36A9A1CE2622268D16871
:102178001980638E013B9BB26386638E9BB263B901
:10218800536823F060035360638D9BB22BB901231E
:1021980084F84130204600F0F7FD009B58061BD517
:1021A800029B990618D522681649536823F06003E4
:1021B8005360154B8A4218BF4FF0402320465A6897
:1021C80022F0A0025A60012384F84130636C43F086
:1021D80002036364FFF734FD019B1A079DD5039B37
:1021E8009B069AD522680749074B8A4218BF4FF0C9
:1021F8004023596821F0A0015960536823F0600317
:10220800536080E700380040003400402DE9F34176
:10221800044608B901203FE00368DD0710D42368AD
:1022280098075AD423681A0700F19C8023685B0733
:1022380000F1BA80A069002840F01B8100202BE043
:10224800A44B9A6802F00C02042A07D09A6802F09C
:102258000C02082A0AD15B68590207D59D4B1B68F6
:102268009A03DCD56368002BD9D1D3E76368994D0D
:10227800B3F5803F13D12B6843F480332B60FEF70E
:1022880063FD944D06462B689B03C8D4FEF75CFD9E
:10229800801B6428F7D9032002B0BDE8F081B3F5AC
:1022A800A02F04D12B6843F480232B60E3E72A682E
:1022B80022F480322A602A6822F480222A60002BC5
:1022C800DDD1FEF741FD06462B689F03A7D5FEF733
:1022D8003BFD801B6428F7D9DDE77E4B9A6812F036
:1022E8000C0F07D09A6802F00C02082A11D15B681B
:1022F8005E020ED4774B1A68950702D5E268012A68
:1023080088D11A68216922F0F80242EAC1021A60EB
:1023180088E7E268704BB2B101221A60FEF714FD3B
:102328006C4D06462B68980707D52B68226923F061
:10233800F80343EAC2032B6074E7FEF705FD801B30
:102348000228EFD9A7E71A60FEF7FEFC614D0646A2
:102358002B6899077FF566AFFEF7F6FC801B02280D
:10236800F6D998E762695D4B7AB101221A60FEF7E7
:10237800EBFC584D06466B6F9F073FF557AFFEF7CE
:10238800E3FC801B0228F6D985E71A60FEF7DCFC1F
:10239800504D06466B6F98077FF548AFFEF7D4FCA3
:1023A800801B0228F6D976E74A4B1A6C12F0805245
:1023B80028D101921A6C42F080521A641B6C03F007
:1023C80080530193019B0126454D2B68D9051BD5E8
:1023D800A368404D012B27D12B6F43F001032B67D6
:1023E800FEF7B2FC3B4D074641F288382B6F9B073E
:1023F80039D5002E3FF41EAF364A136C23F08053B4
:10240800136417E70026DFE72B6843F480732B601B
:10241800FEF79AFC07462B68DA05D9D4FEF794FC38
:10242800C01B0228F7D936E7052B04D12B6F43F0E0
:1024380004032B67D0E72A6F22F001022A672A6F6C
:1024480022F004022A67002BCAD1FEF77DFC41F274
:10245800883807462B6F9807CBD5FEF775FCC01B4D
:102468004045F7D917E7FEF76FFCC01B4045BDD9BB
:1024780011E7184DAB6803F00C03082B47D0194E31
:1024880000230228336035D1FEF75EFC07462B682F
:10249800990129D4226AE3691343626A43EA8213E1
:1024A800E26A43EA0263A26A0A4C5208013A43EA22
:1024B80002436B6001233360FEF746FC0546236840
:1024C8009A013FF5BBAEFEF73FFC401B0228F6D948
:1024D800E1E600BF0038024000004742800E474254
:1024E8000070004060004742FEF72EFCC01B022827
:1024F800CDD9D0E6FEF728FC04462B689B017FF572
:102508009DAEFEF721FC001B0228F6D9C3E6012880
:102518003FF4C2AEA868E36900F480029A427FF4EF
:1025280079AE226A00F03F0393427FF473AE626A89
:1025380047F6C073034093427FF46CAEA26A00F47E
:10254800403393427FF466AEE36A00F07060C01ACD
:1025580018BF0120A0E600BF134908B58B6803F037
:102568000C03042B03D0082B03D0104808BD1048D7
:1025780008BD4A684B68496813F4800314BF0C48C7
:102588000A48C1F3881118BF002302F03F02A1FBDB
:102598000001FEF707FA044B5B68C3F301430133FC
:1025A8005B00B0FBF3F008BD003802400024F400E3
:1025B80000127A002DE9F0410D46044610B90120B9
:1025C800BDE8F081444B1A6802F00F028A4229D311
:1025D80021688F072ED4C80741D43F4B1A6802F0F0
:1025E8000F02954267D3226851076DD4130707D5A8
:1025F8003A4A2169936823F4604343EAC10393602C
:10260800FFF7AAFF354B364A9B68C3F30313D35C25
:10261800D840344B1860344B1868FEF74BFB002049
:10262800BDE8F081CAB21A701B6803F00F03994223
:10263800C5D1CDE7294B11F0040F1EBF9A6842F4AB
:10264800E0529A600E0742BF9A6842F460429A606C
:102658009A68A06822F0F00202439A60BBE76268B9
:102668001E4B012A1DD11B6813F4003FA7D01B4E37
:10267800B36823F003031343B360FEF765FB41F22D
:1026880088380746B368626803F00C03B3EB820F1F
:10269800A3D0FEF759FBC01B4045F3D90320BDE882
:1026A800F081911E01291B6802D813F0007FDDE735
:1026B80013F0020FDAE7EAB21A701B6803F00F038F
:1026C8009D427FF47CAF8EE70449E0688B6823F471
:1026D800E05303438B6089E7003C02400038024026
:1026E80064B700080800002004000020044B054AD5
:1026F8009B68C3F38223D35C034A1068D8407047B1
:102708000038024074B7000808000020044B054A4E
:102718009B68C3F34233D35C034A1068D8407047C0
:102728000038024074B7000808000020036813F05E
:10273800050FF7B5054605D1286810F0020028D125
:1027480003B0F0BD414C424E00232360FEF7FCFA73
:10275800074633681B0115D4AB686A681B0743EA50
:102768008213C6F8843001232360FEF7EDFA384C53
:10277800064623681801DFD4FEF7E6FA801B022814
:10278800F7D904E0FEF7E0FAC01B0228E1D90320DC
:10279800D6E7002301932E4B2E4C1A6C42F0805240
:1027A8001A641B6C03F080530193019B236843F464
:1027B80080732360FEF7C8FA06462368D9051BD53F
:1027C800234C236F13F440731CD1EB6803F440725D
:1027D800B2F5407F1E4A34D1916823F0704021F44D
:1027E800F81120F4407001439160116FC3F30B039B
:1027F8000B4313670020A3E7FEF7A6FA801B022805
:10280800DBD9C4E7EA6802F440729342DDD0236F53
:10281800114A0121116023F44073002111602367DC
:10282800236FDA07D1D5FEF78FFA41F288370646CB
:10283800236F9B07C9D4FEF787FA801BB842F7D9E4
:10284800A5E7916821F4F811CEE700BF6800474278
:102858000038024000700040400E4742012820D155
:10286800114B9A6812F4000204D0012A0F4818BFCD
:10287800002070475A680C4958685302D1F88420E0
:102888004CBF0B4B0B4B00F03F00B3FBF0F3D1F800
:102898008400C2F388125343C0F30270B3FBF0F014
:1028A80070470020704700BF003802400080BB001E
:1028B80000127A000024F40038B50368C1681A6968
:1028C800044622F440520A431A612569A268D9686D
:1028D800C0692A43656921F416412A4321F00C0195
:1028E80002430A43DA605A69A16922F440720A4332
:1028F800B0F5004F5A61254A29D1934203D002F519
:102908008062934220D1FFF701FF62682568921820
:102918004FF000034FF019015B41A0FB0101FEF7E6
:1029280041F86421B0FBF1F401FB1403DB003233FE
:10293800B3FBF1F303F007025B0002EB041203F4AC
:10294800F8731344AB6038BDFFF7D0FEDDE7934260
:1029580002D00F4A934216D1FFF7D8FE6368256864
:1029680019219A00A0FB01019B0FFEF71BF86422B6
:10297800B0FBF2F102FB11031B013233B3FBF2F39C
:1029880003EB0113DEE7FFF7B1FEE7E700100140B4
:1029980000140140F8B504460E4617461D46216846
:1029A8000B6836EA030301D10020F8BD6B1CF7D091
:1029B80095B92368DA6822F4D072DA605A6922F08D
:1029C80001025A61202384F8393084F83A30002310
:1029D80084F838300320F8BDFEF7B6F9C01B8542ED
:1029E800DDD2E6E710B5044640B390F8393003F07D
:1029F800FF021BB980F8382000F034FD2268242338
:102A080084F83930D36823F40053D3602046FFF7A5
:102A180053FF23681A6922F490421A615A6922F016
:102A28002A025A61DA6842F40052DA600020202350
:102A3800E06384F8393084F83A3010BD012010BDC5
:102A48002DE9F8431F4690F83A30202B04460D46EE
:102A5800904654D100294FD0002A4DD090F83830F4
:102A6800012B4CD0012380F838304FF00009222385
:102A7800C0F83C9080F83A30FEF766F9A4F82C804C
:102A88000646A4F82E8084F83890E08D80B220B9EC
:102A9800202384F83A30BDE8F883E38D013B9BB2EC
:102AA800E385A368B3F5805F32463B464FF02001CB
:102AB800204612D1FFF76EFF10B10320BDE8F8835E
:102AC800236822695B6822B9C3F3080325F8023B2F
:102AD800DBE7DBB225F8013BD7E7FFF75BFF002810
:102AE800EBD1236821695B686A1C11B92B70154604
:102AF800CBE703F07F03F9E70120BDE8F883022064
:102B0800BDE8F8830378022B0ED0042B16D0012BD6
:102B180009D14288037913449BB2B3F57F4F4380B0
:102B280001D3022303707047427943889B1A0289B4
:102B38009BB29A424380F6D30323F3E78279438812
:102B48009B1A9BB2B3F5807F01D94380704700235D
:102B58004380E7E713B54FF0FF33009302460B4677
:102B68000548054C9421FEF785FD2046FEF7CAFF6F
:102B78002028FAD102B010BD2C00002010B586B074
:102B880006AA4FF0FF3402F8090D0123009494219E
:102B98000A48FEF76FFD009401230DF117029421F6
:102BA8000648064CFEF73AFE2046FEF7ABFF202803
:102BB800FAD19DF8170006B010BD00BF2C00002008
:102BC80073B5012210215348FEF796FB0D26012309
:102BD8006846022100248DF801308DF80060FFF767
:102BE800B9FF9923684602218DF801308DF800401D
:102BF800FFF7B0FF47238DF8003002218023684695
:102C08008DF80130FFF7A6FF3220FFF7B7FF60F01D
:102C18007F0032258DF80100022168468DF80050AA
:102C2800FFF798FF2846FFF7A9FF00F07F008DF80F
:102C38000100022168468DF80050FFF78BFF6846B7
:102C480002218DF800408DF80140FFF783FF04232F
:102C58008DF800306846AF2302218DF80130FFF768
:102C680079FF7023684602218DF801308DF80060E5
:102C7800FFF770FF05238DF8003068468123022195
:102C88008DF80130FFF766FF06238DF8003068469F
:102C9800072302218DF801300A25FFF75BFF6846FC
:102CA80002218DF800508DF80140FFF753FF2723CC
:102CB800684602218DF800308DF80140FFF74AFF81
:102CC8009A23684603218DF800308DF801508DF85D
:102CD8000250FFF73FFF1F238DF8003068460F238F
:102CE80002218DF80130FFF735FF22238DF80030DF
:102CF8006846C02302218DF80130FFF72BFF02211F
:102D08009E2368468DF800108DF80130FFF722FFEA
:102D180002B070BD000C02402DE9F043DFF850808E
:102D280089B0002704AEC14608EB0715002401232B
:102D3800039402940193EB68009395E80E003046E3
:102D480000F048FA96E80F000137082F85E80F00D1
:102D5800EAD12346204609EB030210339288802BE0
:102D68001044F8D1C0F30F1009B0BDE8F08300BFDC
:102D7800E000002008B5FFF7CFFF024B188058800D
:102D880008BD00BF3802002008B5FFF7C5FF024B99
:102D98009880D88008BD00BF38020020F0B53022E6
:102DA80099B00DEB0200002100F000FC102614225F
:102DB800002107A800F0FAFB3246002103A800F022
:102DC800F5FB00241F4B01941A6C42F080521A64E0
:102DD8001B6C03F080530193019B1B4B02941A68F0
:102DE80042F480421A601B68109603F480430293F1
:102DF800029B139408231493A823022501271593F3
:102E08000CA8072317930C950F9712951695FFF7A3
:102E1800FDF90F2307934FF4A0530A9305214FF4AC
:102E2800805307A80B9308950994FFF7C3FB602309
:102E3800049303A8042303970593FFF777FC19B0BD
:102E4800F0BD00BF00380240007000402DE9F0439B
:102E58008DB00024964DDFF89C92FDF74FFFFFF7E9
:102E68009DFF1422002107A800F0A0FB01942B6B02
:102E7800904843F010032B632B6B03F0100301936E
:102E8800019B02942B6B43F004032B632B6B03F021
:102E980004030293029B03942B6B43F080032B6380
:102EA8002B6B03F080030393039B04942B6B43F079
:102EB80001032B632B6B03F001030493049B05941C
:102EC8002B6B43F002032B632B6B03F00203059378
:102ED800059B06942B6B43F008032B632B6B03F0C5
:102EE8000803069322460821069BFEF705FA0122ED
:102EF80011467148FEF700FA22464FF210016F485A
:102F0800FEF7FAF90127082607A96A4807960897DD
:102F180009940A94FEF710F907A9674807974FF034
:102F28000508089709940A94FEF706F9079607A971
:102F380002266148089609940A94CDF82C80FEF779
:102F4800FBF807A95E480797CDF820900994FEF78B
:102F5800F3F8E02307A95A480793089609940A94B6
:102F6800CDF82C80FEF7E8F8042307A95548079305
:102F780008940994FEF7E0F84FF4806307A95148D4
:102F88000793089609940A94CDF82C80FEF7D4F894
:102F98004FF2100307A949480793089709944FF47B
:102FA80000770A94FEF7C8F807A9454807970894D8
:102FB8000994FEF7C1F84FF4E053079307A90A23D1
:102FC8003F4808960B9309940A94FEF7B5F8202316
:102FD80007A93A48079308940994FEF7ADF807A99A
:102FE80034480796CDF820900994FEF7A5F8079481
:102FF8002B6B43F400132B632B6B334D03F400133B
:103008002146224607931020079BFDF7B5FE1020A6
:10301800FDF7E6FE2D4BAC6085E8880028464BF6A8
:1030280080336B61EC602F61AC61EC612C62FEF760
:103038006DFD2748274A284B846080E80C004FF430
:1030480080430361C46044618461C4610462FEF723
:1030580065FA22482249846047F6122380E80A006C
:103068000C234361C46004618461C461FFF7BAFC46
:10307800FFF7A6FD33461B4A1B491C4E2846FEF7A0
:103088007DFE1B4B21464FF6EE600F2206EB041522
:103098000134082CEB601970598018815A711A7123
:1030A8009A7103F10A03F1D100F076F8FCE700BF4A
:1030B800003802400010024000080240000C0240A4
:1030C8000000024000040240F0010020003C0040E3
:1030D8002C00002000540040A08601006001002060
:1030E800004400404202002038020020E000002096
:1030F800A0010020000012107047000007B54FF033
:10310800FF33012201A90448FFF79AFC9DF8040047
:1031180003B05DF804FB00BF6001002010B507494B
:10312800002301EB03129479844203D1D36804226B
:103138001A7010BD0133082BF3D110BDE000002038
:10314800134B30B5002403EB041295796DB9114B7C
:1031580090715B5C558007EE903AFBEEEC7AD36891
:10316800C2ED027A01221A7030BD0134082CEAD16E
:10317800084A83F87600525C07EE902AFBEEEC7A58
:103188000022C3ED1E7AA3F87220DB6FEAE700BFC6
:10319800E0000020E435000810B5FFF7AFFF00F0AD
:1031A800F000802805D1FFF7A9FFBDE81040FFF720
:1031B800B5BF90280CD1FFF7A1FF0446FFF79EFF8B
:1031C800014620460029F0D0BDE81040FFF7B8BFFF
:1031D80010BD000084B02DE9F74F0DAE86E80E0053
:1031E800109B9DF844201F78BDF836508246002F6A
:1031F8005FD031499DF83A70BDF8384031F817B0C2
:103208000BEB0501BDF848500D44ADB2002A41D181
:10321800A9082A4A32F8114001931846FFF772FCB0
:10322800BDF84C209DED0F7A144407EE904AF8EE55
:10323800E77A67EE877A17EE900AFDF725F9019B82
:103248008046588807EE900AF8EE677A894617EEA6
:10325800900AFDF719F90022194BFDF793FA024677
:103268000B4640464946FDF763F9FDF773FB80B20C
:10327800ADF834B0ADF83650ADF838008DF83A7086
:1032880096E80F008AE80F00504603B0BDE8F04FFB
:1032980004B07047012A08D147F6FE74A5424FF0E2
:1032A800FF3498BF0024A4B2B6E7022A08BF2C4610
:1032B800B2E73846BB46DBE76436000864370008E7
:1032C80000E0EF4007B50E4B002100915A6C42F424
:1032D80080425A645A6C02F480420092009A01912A
:1032E8001A6C42F080521A641B6C03F080530193ED
:1032F8000720019BFDF72EFD03B05DF804FB00BF1E
:103308000038024030B5044689B01422002103A8D1
:1033180000F04CF92268144B9A4222D1134C1448FD
:1033280000250195236B43F002032363236B03F00D
:1033380002030193019B4FF4107303931223049328
:103348000123059303A904230793FDF7F5FE0295CE
:10335800236C43F400132364236C03F400130293D7
:10336800029B09B030BD00BF005400400038024045
:1033780000040240F0B5064689B01422002103A8D3
:1033880000F014F93268324B9A425ED1002503F5F9
:10339800FE3300951A6C2F4842F400421A641A6CE6
:1033A80002F400420092009A01951A6B42F0010261
:1033B8001A631A6B02F001020192019A02951A6BC4
:1033C80042F004021A631B6B03F004030293022405
:1033D8000627029B0494102303A903930797FDF77C
:1033E800ABFE4FF4A45303A91B4803930494079717
:1033F80005954FF400670695FDF79EFE05231648D0
:10340800049403A9154C0793039705950695FDF7B2
:1034180093FE134BE56084E828004023A3604FF433
:10342800806323614FF40053A3614FF48073E36119
:1034380020464FF40033676123626562FDF70AFD99
:1034480008B1FFF759FEB463A66309B0F0BD00BF29
:10345800003C0040000002400008024080000020BC
:103468008860024010B5044688B01422002103A8E1
:1034780000F09CF82268154B9A4224D103F5FA33E0
:10348800002101911A6C124842F400321A641A6C35
:1034980002F400320192019A02911A6B42F0010281
:1034A8001A631B6B03F001030293029B0C23039323
:1034B80002230493012305930323069303A90723F7
:1034C8000793FDF739FE08B010BD00BF0044004067
:1034D800000002407047FEE7FEE7FEE7FEE77047A0
:1034E80070477047FDF724BC0148FDF76BBD00BF6E
:1034F80080000020054BD3F8882042F47002C3F8FE
:1035080088204FF000629A60704700BF00ED00E02D
:10351800DFF834D0002103E00C4B5B5843500431F2
:103528000B480C4B42189A42F6D30B4A02E0002390
:1035380042F8043B094B9A42F9D3FFF7DBFF00F04E
:1035480011F8FFF783FC7047000002208CB70008D1
:10355800000000200C0000200C0000204C0200207D
:10356800FEE7000070B50D4E0D4CA41BA4100025FD
:10357800A54209D10B4E0C4C00F020F8A41BA41056
:103588000025A54205D170BD56F82530984701356C
:10359800EEE756F8253098470135F2E784B700087A
:1035A80084B7000884B7000888B7000802440346B7
:1035B800934200D1704703F8011BF9E7F8B500BF43
:1035C800F8BC08BC9E467047F8B500BFF8BC08BCFC
:0435D8009E46704754
:1035DC000006101600061016000205070A0C0F1143
:1035EC001416181B1D1F21232527292B2C2E303197
:1035FC0033353638393A3C3D3E40414243454647E7
:10360C0048494A4B4C4D4E4F5051525353545556BA
:10361C00575758595A5A5B5C5C5D5E5E5F606061DF
:10362C006162636364646565666667676868696937
:10363C006A6A6B6B6B6C6C6D6D6D6E6E6F6F6F70B1
:10364C007070717171727272737373747474757546
:10365C00757676767677777A0B000C000D000E0077
:10366C000E000F00100011001200130014001600C1
:10367C00170018001A001B001D001F00200022005C
:10368C002400260029002B002E00300033003600C9
:10369C003A003D004100450049004D0051005600E4
:1036AC005B00610067006D0073007A008100890087
:1036BC0091009A00A300AD00B700C200CD00D90064
:1036CC00E600F40003011201220134014601590104
:1036DC006E0184019B01B301CD01E80105022402B6
:1036EC00450267028C02B202DC0207033503660353
:1036FC009A03D1030B0448048904CE04170565050D
:10370C00B7050E066A06CC063307A1071508900804
:10371C0013099D092F0ACA0A6E0B1C0CD50C980DA7
:10372C00670E420F2A102011251239135E149415BE
:10373C00DC163818A919301BCE1C841E55204122CA
:10374C004A247326BC28282BB92D7130523360368D
:10375C009B39083DA940824400800C80198025804B
:10376C0032803E804B805780648071807D808A805F
:10377C009680A380AF80BC80C980D580E280EE802B
:10378C00FB800781148121812D813A8146815381EF
:10379C005F816C817881858192819E81AB81B781BB
:1037AC00C481D081DD81EA81F68103820F821C8283
:1037BC002882358242824E825B826782748280824A
:1037CC008D829982A682B382BF82CC82D882E58216
:1037DC00F182FE820B831783248330833D834983DC
:1037EC00568362836F837C8388839583A183AE83A6
:1037FC00BA83C783D483E083ED83F9830684128470
:10380C001F842B843884458451845E846A84778435
:10381C00838490849C84A984B684C284CF84DB8402
:10382C00E884F48401850D851A85278533854085C8
:10383C004C855985658572857E858B859885A48593
:10384C00B185BD85CA85D685E385EF85FC8509865E
:10385C00158622862E863B864786548660866D8624
:10386C007A86868693869F86AC86B886C586D186F0
:10387C00DE86EA86F786048710871D8729873687B8
:10388C0042874F875B876887748781878E879A8783
:10389C00A787B387C087CC87D987E587F287FE8750
:1038AC000B881888248831883D884A885688638814
:1038BC006F887C8888889588A188AE88BB88C788E3
:1038CC00D488E088ED88F988068912891F892B89AC
:1038DC003889448951895D896A8977898389908976
:1038EC009C89A989B589C289CE89DB89E789F48944
:1038FC00008A0D8A198A268A328A3F8A4C8A588A0B
:10390C00658A718A7E8A8A8A978AA38AB08ABC8AD7
:10391C00C98AD58AE28AEE8AFB8A078B148B208BA4
:10392C002D8B398B468B528B5F8B6C8B788B858B6D
:10393C00918B9E8BAA8BB78BC38BD08BDC8BE98B3B
:10394C00F58B028C0E8C1B8C278C348C408C4D8C04
:10395C00598C668C728C7F8C8B8C988CA48CB18CD3
:10396C00BD8CCA8CD68CE38CEF8CFC8C088D158DA1
:10397C00218D2E8D3A8D478D538D608D6C8D798D6B
:10398C00858D928D9E8DAB8DB78DC48DD08DDD8D3B
:10399C00E98DF68D028E0F8E1B8E288E348E418E05
:1039AC004D8E5A8E668E738E7F8E8C8E988EA58ED3
:1039BC00B18EBE8ECA8ED68EE38EEF8EFC8E088FA5
:1039CC00158F218F2E8F3A8F478F538F608F6C8F6F
:1039DC00798F858F928F9E8FAB8FB78FC48FD08F3F
:1039EC00DC8FE98FF58F02900E901B90279034900E
:1039FC0040904D905990669072907F908B909790DC
:103A0C00A490B090BD90C990D690E290EF90FB90AE
:103A1C000891149120912D913991469152915F9179
:103A2C006B917891849191919D91A991B691C2914C
:103A3C00CF91DB91E891F49101920D92199226921B
:103A4C0032923F924B925892649270927D928992EC
:103A5C009692A292AF92BB92C792D492E092ED92C0
:103A6C00F992069312931E932B933793449350938E
:103A7C005D936993759382938E939B93A793B49361
:103A8C00C093CC93D993E593F293FE930A94179435
:103A9C00239430943C944894559461946E947A9405
:103AAC00879493949F94AC94B894C594D194DD94DA
:103ABC00EA94F69403950F951B95289534954095AB
:103ACC004D955995669572957E958B959795A49580
:103ADC00B095BC95C995D595E195EE95FA95079657
:103AEC0013961F962C963896459651965D966A9627
:103AFC00769682968F969B96A796B496C096CD9600
:103B0C00D996E596F296FE960A97179723972F97D4
:103B1C003C974897559761976D977A9786979297A8
:103B2C009F97AB97B797C497D097DC97E997F59782
:103B3C0001980E981A98269833983F984B98589855
:103B4C00649870987D9889989598A298AE98BA9830
:103B5C00C798D398DF98EC98F898049911991D9907
:103B6C002999369942994E995B99679973998099DD
:103B7C008C999899A599B199BD99CA99D699E299B8
:103B8C00EE99FB99079A139A209A2C9A389A459A8F
:103B9C00519A5D9A699A769A829A8E9A9B9AA79A6A
:103BAC00B39ABF9ACC9AD89AE49AF19AFD9A099B47
:103BBC00159B229B2E9B3A9B479B539B5F9B6B9B1E
:103BCC00789B849B909B9D9BA99BB59BC19BCE9BFB
:103BDC00DA9BE69BF29BFF9B0B9C179C239C309CD7
:103BEC003C9C489C549C619C6D9C799C859C929CB3
:103BFC009E9CAA9CB69CC39CCF9CDB9CE79CF49C93
:103C0C00009D0C9D189D259D319D3D9D499D569D6A
:103C1C00629D6E9D7A9D869D939D9F9DAB9DB79D4C
:103C2C00C49DD09DDC9DE89DF49D019E0D9E199E2A
:103C3C00259E329E3E9E4A9E569E629E6F9E7B9E07
:103C4C00879E939E9F9EAC9EB89EC49ED09EDC9EEB
:103C5C00E99EF59E019F0D9F199F269F329F3E9FC7
:103C6C004A9F569F629F6F9F7B9F879F939F9F9FAB
:103C7C00AC9FB89FC49FD09FDC9FE89FF59F01A08D
:103C8C000DA019A025A031A03EA04AA056A062A06C
:103C9C006EA07AA087A093A09FA0ABA0B7A0C3A052
:103CAC00CFA0DCA0E8A0F4A000A10CA118A124A135
:103CBC0031A13DA149A155A161A16DA179A185A118
:103CCC0092A19EA1AAA1B6A1C2A1CEA1DAA1E6A100
:103CDC00F3A1FFA10BA217A223A22FA23BA247A2E2
:103CEC0053A260A26CA278A284A290A29CA2A8A2C9
:103CFC00B4A2C0A2CCA2D9A2E5A2F1A2FDA209A3B2
:103D0C0015A321A32DA339A345A351A35DA36AA396
:103D1C0076A382A38EA39AA3A6A3B2A3BEA3CAA37F
:103D2C00D6A3E2A3EEA3FAA306A412A41FA42BA469
:103D3C0037A443A44FA45BA467A473A47FA48BA44F
:103D4C0097A4A3A4AFA4BBA4C7A4D3A4DFA4EBA43F
:103D5C00F7A403A50FA51BA527A533A53FA54BA528
:103D6C0057A564A570A57CA588A594A5A0A5ACA510
:103D7C00B8A5C4A5D0A5DCA5E8A5F4A500A60CA6FD
:103D8C0018A624A630A63CA648A654A660A66CA6E7
:103D9C0078A684A690A69BA6A7A6B3A6BFA6CBA6DC
:103DAC00D7A6E3A6EFA6FBA607A713A71FA72BA7CB
:103DBC0037A743A74FA75BA767A773A77FA78BA7B7
:103DCC0097A7A3A7AFA7BBA7C7A7D3A7DEA7EAA7A9
:103DDC00F6A702A80EA81AA826A832A83EA84AA898
:103DEC0056A862A86EA87AA885A891A89DA8A9A88B
:103DFC00B5A8C1A8CDA8D9A8E5A8F1A8FDA808A97F
:103E0C0014A920A92CA938A944A950A95CA968A96E
:103E1C0074A97FA98BA997A9A3A9AFA9BBA9C7A965
:103E2C00D3A9DEA9EAA9F6A902AA0EAA1AAA26AA59
:103E3C0032AA3DAA49AA55AA61AA6DAA79AA85AA4D
:103E4C0090AA9CAAA8AAB4AAC0AACCAAD8AAE3AA47
:103E5C00EFAAFBAA07AB13AB1FAB2AAB36AB42AB3B
:103E6C004EAB5AAB65AB71AB7DAB89AB95ABA1AB34
:103E7C00ACABB8ABC4ABD0ABDCABE7ABF3ABFFAB31
:103E8C000BAC17AC22AC2EAC3AAC46AC52AC5DAC25
:103E9C0069AC75AC81AC8DAC98ACA4ACB0ACBCAC22
:103EAC00C7ACD3ACDFACEBACF6AC02AD0EAD1AAD1F
:103EBC0026AD31AD3DAD49AD55AD60AD6CAD78AD18
:103ECC0084AD8FAD9BADA7ADB3ADBEADCAADD6AD18
:103EDC00E1ADEDADF9AD05AE10AE1CAE28AE34AE15
:103EEC003FAE4BAE57AE62AE6EAE7AAE86AE91AE14
:103EFC009DAEA9AEB4AEC0AECCAED7AEE3AEEFAE17
:103F0C00FAAE06AF12AF1EAF29AF35AF41AF4CAF13
:103F1C0058AF64AF6FAF7BAF87AF92AF9EAFAAAF16
:103F2C00B5AFC1AFCDAFD8AFE4AFF0AFFBAF07B01B
:103F3C0013B01EB02AB035B041B04DB058B064B01B
:103F4C0070B07BB087B093B09EB0AAB0B5B0C1B022
:103F5C00CDB0D8B0E4B0EFB0FBB007B112B11EB128
:103F6C002AB135B141B14CB158B163B16FB17BB12C
:103F7C0086B192B19DB1A9B1B5B1C0B1CCB1D7B137
:103F8C00E3B1EEB1FAB106B211B21DB228B234B23D
:103F9C003FB24BB257B262B26EB279B285B290B246
:103FAC009CB2A7B2B3B2BEB2CAB2D6B2E1B2EDB253
:103FBC00F8B204B30FB31BB326B332B33DB349B35A
:103FCC0054B360B36BB377B382B38EB399B3A5B369
:103FDC00B0B3BCB3C7B3D3B3DEB3EAB3F5B301B478
:103FEC000CB418B423B42FB43AB446B451B45CB482
:103FFC0068B473B47FB48AB496B4A1B4ADB4B8B495
:10400C00C4B4CFB4DBB4E6B4F1B4FDB408B514B5A4
:10401C001FB52BB536B541B54DB558B564B56FB5B3
:10402C007BB586B591B59DB5A8B5B4B5BFB5CAB5C8
:10403C00D6B5E1B5EDB5F8B503B60FB61AB626B6DA
:10404C0031B63CB648B653B65EB66AB675B681B6EE
:10405C008CB697B6A3B6AEB6B9B6C5B6D0B6DBB607
:10406C00E7B6F2B6FEB609B714B720B72BB736B71A
:10407C0042B74DB758B764B76FB77AB786B791B731
:10408C009CB7A8B7B3B7BEB7C9B7D5B7E0B7EBB74E
:10409C00F7B702B80DB819B824B82FB83AB846B863
:1040AC0051B85CB868B873B87EB889B895B8A0B880
:1040BC00ABB8B6B8C2B8CDB8D8B8E4B8EFB8FAB89F
:1040CC0005B911B91CB927B932B93EB949B954B9B6
:1040DC005FB96AB976B981B98CB997B9A3B9AEB9D8
:1040EC00B9B9C4B9CFB9DBB9E6B9F1B9FCB907BAFA
:1040FC0013BA1EBA29BA34BA3FBA4BBA56BA61BA15
:10410C006CBA77BA83BA8EBA99BAA4BAAFBABABA39
:10411C00C6BAD1BADCBAE7BAF2BAFDBA09BB14BB5B
:10412C001FBB2ABB35BB40BB4BBB57BB62BB6DBB7C
:10413C0078BB83BB8EBB99BBA4BBB0BBBBBBC6BBA4
:10414C00D1BBDCBBE7BBF2BBFDBB08BC13BC1FBCCB
:10415C002ABC35BC40BC4BBC56BC61BC6CBC77BCEF
:10416C0082BC8DBC98BCA4BCAFBCBABCC5BCD0BC1A
:10417C00DBBCE6BCF1BCFCBC07BD12BD1DBD28BD43
:10418C0033BD3EBD49BD54BD5FBD6ABD75BD80BD6F
:10419C008BBD96BDA1BDACBDB7BDC2BDCDBDD8BD9F
:1041AC00E3BDEEBDF9BD04BE0FBE1ABE25BE30BECA
:1041BC003BBE46BE51BE5CBE67BE72BE7DBE88BEF7
:1041CC0093BE9EBEA9BEB4BEBFBECABED5BEE0BE27
:1041DC00EBBEF6BE01BF0CBF17BF21BF2CBF37BF54
:1041EC0042BF4DBF58BF63BF6EBF79BF84BF8FBF87
:1041FC009ABFA4BFAFBFBABFC5BFD0BFDBBFE6BFBE
:10420C00F1BFFCBF07C011C01CC027C032C03DC0ED
:10421C0048C053C05DC068C073C07EC089C094C024
:10422C009FC0A9C0B4C0BFC0CAC0D5C0E0C0EAC05E
:10423C00F5C000C10BC116C121C12BC136C141C192
:10424C004CC157C161C16CC177C182C18DC197C1CD
:10425C00A2C1ADC1B8C1C3C1CDC1D8C1E3C1EEC10A
:10426C00F8C103C20EC219C224C22EC239C244C242
:10427C004FC259C264C26FC279C284C28FC29AC281
:10428C00A4C2AFC2BAC2C5C2CFC2DAC2E5C2EFC2C3
:10429C00FAC205C310C31AC325C330C33AC345C3FE
:1042AC0050C35AC365C370C37AC385C390C39BC341
:1042BC00A5C3B0C3BBC3C5C3D0C3DAC3E5C3F0C386
:1042CC00FAC305C410C41AC425C430C43AC445C4C6
:1042DC0050C45AC465C46FC47AC485C48FC49AC40C
:1042EC00A4C4AFC4BAC4C4C4CFC4D9C4E4C4EFC456
:1042FC00F9C404C50EC519C524C52EC539C543C599
:10430C004EC558C563C56EC578C583C58DC598C5E2
:10431C00A2C5ADC5B7C5C2C5CCC5D7C5E1C5ECC531
:10432C00F7C501C60CC616C621C62BC636C640C676
:10433C004BC655C660C66AC675C67FC68AC694C6C5
:10434C009FC6A9C6B4C6BEC6C8C6D3C6DDC6E8C617
:10435C00F2C6FDC607C712C71CC727C731C73BC764
:10436C0046C750C75BC765C770C77AC784C78FC7B6
:10437C0099C7A4C7AEC7B9C7C3C7CDC7D8C7E2C70B
:10438C00EDC7F7C701C80CC816C821C82BC835C85B
:10439C0040C84AC854C85FC869C873C87EC888C8B2
:1043AC0093C89DC8A7C8B2C8BCC8C6C8D1C8DBC80A
:1043BC00E5C8F0C8FAC804C90FC919C923C92EC960
:1043CC0038C942C94CC957C961C96BC976C980C9BA
:1043DC008AC994C99FC9A9C9B3C9BEC9C8C9D2C918
:1043EC00DCC9E7C9F1C9FBC905CA10CA1ACA24CA73
:1043FC002ECA39CA43CA4DCA57CA62CA6CCA76CACF
:10440C0080CA8ACA95CA9FCAA9CAB3CABDCAC8CA31
:10441C00D2CADCCAE6CAF0CAFBCA05CB0FCB19CB91
:10442C0023CB2ECB38CB42CB4CCB56CB60CB6ACBF1
:10443C0075CB7FCB89CB93CB9DCBA7CBB1CBBCCB57
:10444C00C6CBD0CBDACBE4CBEECBF8CB02CC0DCCBD
:10445C0017CC21CC2BCC35CC3FCC49CC53CC5DCC20
:10446C0067CC72CC7CCC86CC90CC9ACCA4CCAECC89
:10447C00B8CCC2CCCCCCD6CCE0CCEACCF4CCFECCF8
:10448C0008CD12CD1CCD26CD30CD3BCD45CD4FCD5D
:10449C0059CD63CD6DCD77CD81CD8BCD95CD9FCDC8
:1044AC00A9CDB3CDBDCDC7CDD0CDDACDE4CDEECD3C
:1044BC00F8CD02CE0CCE16CE20CE2ACE34CE3ECEA9
:1044CC0048CE52CE5CCE66CE70CE7ACE84CE8ECE18
:1044DC0097CEA1CEABCEB5CEBFCEC9CED3CEDDCE90
:1044EC00E7CEF1CEFACE04CF0ECF18CF22CF2CCF01
:1044FC0036CF40CF4ACF53CF5DCF67CF71CF7BCF75
:10450C0085CF8ECF98CFA2CFACCFB6CFC0CFC9CFEF
:10451C00D3CFDDCFE7CFF1CFFBCF04D00ED018D067
:10452C0022D02CD035D03FD049D053D05DD066D0DE
:10453C0070D07AD084D08DD097D0A1D0ABD0B4D05D
:10454C00BED0C8D0D2D0DBD0E5D0EFD0F9D002D1DC
:10455C000CD116D120D129D133D13DD146D150D156
:10456C005AD164D16DD177D181D18AD194D19ED1D8
:10457C00A7D1B1D1BBD1C4D1CED1D8D1E1D1EBD15E
:10458C00F5D1FED108D212D21BD225D22FD238D2DD
:10459C0042D24BD255D25FD268D272D27BD285D264
:1045AC008FD298D2A2D2ABD2B5D2BFD2C8D2D2D2ED
:1045BC00DBD2E5D2EFD2F8D202D30BD315D31ED374
:1045CC0028D331D33BD345D34ED358D361D36BD3FC
:1045DC0074D37ED387D391D39AD3A4D3ADD3B7D38B
:1045EC00C0D3CAD3D3D3DDD3E6D3F0D3F9D303D41A
:1045FC000CD416D41FD429D432D43CD445D44FD4A3
:10460C0058D461D46BD474D47ED487D491D49AD436
:10461C00A4D4ADD4B6D4C0D4C9D4D3D4DCD4E5D4CA
:10462C00EFD4F8D402D50BD514D51ED527D531D55A
:10463C003AD543D54DD556D55FD569D572D57BD5F1
:10464C0085D58ED598D5A1D5AAD5B4D5BDD5C6D589
:10465C00D0D5D9D5E2D5EBD5F5D5FED507D611D623
:10466C001AD623D62DD636D63FD648D652D65BD6BA
:10467C0064D66ED677D680D689D693D69CD6A5D658
:10468C00AED6B8D6C1D6CAD6D3D6DDD6E6D6EFD6F8
:10469C00F8D601D70BD714D71DD726D72FD739D794
:1046AC0042D74BD754D75DD767D770D779D782D736
:1046BC008BD795D79ED7A7D7B0D7B9D7C2D7CBD7DB
:1046CC00D5D7DED7E7D7F0D7F9D702D80BD814D87F
:1046DC001ED827D830D839D842D84BD854D85DD822
:1046EC0066D86FD879D882D88BD894D89DD8A6D8CC
:1046FC00AFD8B8D8C1D8CAD8D3D8DCD8E5D8EED87A
:10470C00F7D800D909D912D91BD925D92ED937D91F
:10471C0040D949D952D95BD964D96DD976D97FD9C9
:10472C0087D990D999D9A2D9ABD9B4D9BDD9C6D981
:10473C00CFD9D8D9E1D9EAD9F3D9FCD905DA0EDA2F
:10474C0017DA20DA29DA32DA3ADA43DA4CDA55DADD
:10475C005EDA67DA70DA79DA82DA8BDA93DA9CDA93
:10476C00A5DAAEDAB7DAC0DAC9DAD1DADADAE3DA4C
:10477C00ECDAF5DAFEDA07DB0FDB18DB21DB2ADB00
:10478C0033DB3BDB44DB4DDB56DB5FDB67DB70DBBA
:10479C0079DB82DB8BDB93DB9CDBA5DBAEDBB7DB76
:1047AC00BFDBC8DBD1DBDADBE2DBEBDBF4DBFDDB35
:1047BC0005DC0EDC17DC1FDC28DC31DC3ADC42DCEF
:1047CC004BDC54DC5CDC65DC6EDC77DC7FDC88DCB1
:1047DC0091DC99DCA2DCABDCB3DCBCDCC5DCCDDC75
:1047EC00D6DCDFDCE7DCF0DCF8DC01DD0ADD12DD39
:1047FC001BDD24DD2CDD35DD3DDD46DD4FDD57DDFC
:10480C0060DD68DD71DD7ADD82DD8BDD93DD9CDDC5
:10481C00A5DDADDDB6DDBEDDC7DDCFDDD8DDE0DD90
:10482C00E9DDF1DDFADD03DE0BDE14DE1CDE25DE58
:10483C002DDE36DE3EDE47DE4FDE58DE60DE69DE24
:10484C0071DE7ADE82DE8BDE93DE9BDEA4DEACDEF6
:10485C00B5DEBDDEC6DECEDED7DEDFDEE7DEF0DEC9
:10486C00F8DE01DF09DF12DF1ADF22DF2BDF33DF97
:10487C003CDF44DF4CDF55DF5DDF66DF6EDF76DF6C
:10488C007FDF87DF8FDF98DFA0DFA8DFB1DFB9DF45
:10489C00C2DFCADFD2DFDBDFE3DFEBDFF3DFFCDF1E
:1048AC0004E00CE015E01DE025E02EE036E03EE0F3
:1048BC0046E04FE057E05FE068E070E078E080E0D1
:1048CC0089E091E099E0A1E0AAE0B2E0BAE0C2E0B0
:1048DC00CAE0D3E0DBE0E3E0EBE0F4E0FCE004E191
:1048EC000CE114E11DE125E12DE135E13DE145E16E
:1048FC004EE156E15EE166E16EE176E17EE187E153
:10490C008FE197E19FE1A7E1AFE1B7E1C0E1C8E139
:10491C00D0E1D8E1E0E1E8E1F0E1F8E100E208E221
:10492C0010E219E221E229E231E239E241E249E204
:10493C0051E259E261E269E271E279E281E289E2F3
:10494C0091E299E2A1E2A9E2B1E2B9E2C1E2C9E2E3
:10495C00D1E2D9E2E1E2E9E2F1E2F9E201E309E3D1
:10496C0011E319E321E329E331E339E341E349E3BB
:10497C0051E358E360E368E370E378E380E388E3B2
:10498C0090E398E3A0E3A7E3AFE3B7E3BFE3C7E3A8
:10499C00CFE3D7E3DFE3E6E3EEE3F6E3FEE306E49F
:1049AC000EE416E41DE425E42DE435E43DE444E492
:1049BC004CE454E45CE464E46BE473E47BE483E48F
:1049CC008BE492E49AE4A2E4AAE4B1E4B9E4C1E48D
:1049DC00C9E4D0E4D8E4E0E4E8E4EFE4F7E4FFE48D
:1049EC0007E50EE516E51EE525E52DE535E53CE587
:1049FC0044E54CE554E55BE563E56BE572E57AE58A
:104A0C0082E589E591E598E5A0E5A8E5AFE5B7E590
:104A1C00BFE5C6E5CEE5D5E5DDE5E5E5ECE5F4E598
:104A2C00FBE503E60BE612E61AE621E629E631E69B
:104A3C0038E640E647E64FE656E65EE665E66DE6A6
:104A4C0074E67CE684E68BE693E69AE6A2E6A9E6B3
:104A5C00B1E6B8E6C0E6C7E6CFE6D6E6DEE6E5E6C2
:104A6C00EDE6F4E6FBE603E70AE712E719E721E7D0
:104A7C0028E730E737E73EE746E74DE755E75CE7E1
:104A8C0064E76BE772E77AE781E789E790E797E7F6
:104A9C009FE7A6E7ADE7B5E7BCE7C4E7CBE7D2E70E
:104AAC00DAE7E1E7E8E7F0E7F7E7FEE706E80DE825
:104ABC0014E81CE823E82AE831E839E840E847E83C
:104ACC004FE856E85DE864E86CE873E87AE881E85A
:104ADC0089E890E897E89EE8A6E8ADE8B4E8BBE87A
:104AEC00C3E8CAE8D1E8D8E8DFE8E7E8EEE8F5E89B
:104AFC00FCE803E90BE912E919E920E927E92EE9B9
:104B0C0036E93DE944E94BE952E959E961E968E9DB
:104B1C006FE976E97DE984E98BE992E999E9A1E904
:104B2C00A8E9AFE9B6E9BDE9C4E9CBE9D2E9D9E92D
:104B3C00E0E9E7E9EEE9F5E9FCE904EA0BEA12EA57
:104B4C0019EA20EA27EA2EEA35EA3CEA43EA4AEA7D
:104B5C0051EA58EA5FEA66EA6DEA74EA7BEA82EAAD
:104B6C0089EA90EA96EA9DEAA4EAABEAB2EAB9EAE3
:104B7C00C0EAC7EACEEAD5EADCEAE3EAEAEAF1EA15
:104B8C00F8EAFEEA05EB0CEB13EB1AEB21EB28EB46
:104B9C002FEB35EB3CEB43EB4AEB51EB58EB5FEB7C
:104BAC0065EB6CEB73EB7AEB81EB88EB8EEB95EBB7
:104BBC009CEBA3EBAAEBB0EBB7EBBEEBC5EBCBEBF3
:104BCC00D2EBD9EBE0EBE7EBEDEBF4EBFBEB02EC30
:104BDC0008EC0FEC16EC1DEC23EC2AEC31EC37EC6A
:104BEC003EEC45EC4CEC52EC59EC60EC66EC6DECAC
:104BFC0074EC7AEC81EC88EC8EEC95EC9CECA2ECF1
:104C0C00A9ECB0ECB6ECBDECC3ECCAECD1ECD7EC37
:104C1C00DEECE4ECEBECF2ECF8ECFFEC05ED0CED7F
:104C2C0013ED19ED20ED26ED2DED33ED3AED41EDC3
:104C3C0047ED4EED54ED5BED61ED68ED6EED75ED10
:104C4C007BED82ED88ED8FED95ED9CEDA2EDA9ED60
:104C5C00AFEDB6EDBCEDC3EDC9EDD0EDD6EDDCEDB1
:104C6C00E3EDE9EDF0EDF6EDFDED03EE0AEE10EE01
:104C7C0016EE1DEE23EE2AEE30EE36EE3DEE43EE52
:104C8C004AEE50EE56EE5DEE63EE69EE70EE76EEA9
:104C9C007CEE83EE89EE8FEE96EE9CEEA2EEA9EE04
:104CAC00AFEEB5EEBCEEC2EEC8EECFEED5EEDBEE5F
:104CBC00E1EEE8EEEEEEF4EEFAEE01EF07EF0DEFBB
:104CCC0013EF1AEF20EF26EF2CEF33EF39EF3FEF16
:104CDC0045EF4BEF52EF58EF5EEF64EF6AEF71EF79
:104CEC0077EF7DEF83EF89EF8FEF96EF9CEFA2EFDD
:104CFC00A8EFAEEFB4EFBBEFC1EFC7EFCDEFD3EF43
:104D0C00D9EFDFEFE5EFEBEFF2EFF8EFFEEF04F0AA
:104D1C000AF010F016F01CF022F028F02EF034F00F
:104D2C003AF040F046F04CF052F058F05FF065F07D
:104D3C006BF071F077F07DF083F089F08FF094F0E8
:104D4C009AF0A0F0A6F0ACF0B2F0B8F0BEF0C4F05F
:104D5C00CAF0D0F0D6F0DCF0E2F0E8F0EEF0F4F0CF
:104D6C00FAF0FFF005F10BF111F117F11DF123F140
:104D7C0029F12FF134F13AF140F146F14CF152F1B5
:104D8C0057F15DF163F169F16FF175F17AF180F131
:104D9C0086F18CF192F197F19DF1A3F1A9F1AFF1AC
:104DAC00B4F1BAF1C0F1C6F1CBF1D1F1D7F1DDF12B
:104DBC00E2F1E8F1EEF1F4F1F9F1FFF105F20AF2AA
:104DCC0010F216F21CF221F227F22DF232F238F226
:104DDC003EF243F249F24FF254F25AF260F265F2AB
:104DEC006BF270F276F27CF281F287F28DF292F233
:104DFC0098F29DF2A3F2A8F2AEF2B4F2B9F2BFF2BD
:104E0C00C4F2CAF2CFF2D5F2DBF2E0F2E6F2EBF248
:104E1C00F1F2F6F2FCF201F307F30CF312F317F3D1
:104E2C001DF322F328F32DF333F338F33EF343F35E
:104E3C0049F34EF354F359F35EF364F369F36FF3F0
:104E4C0074F37AF37FF384F38AF38FF395F39AF385
:104E5C009FF3A5F3AAF3B0F3B5F3BAF3C0F3C5F31C
:104E6C00CAF3D0F3D5F3DAF3E0F3E5F3EAF3F0F3B6
:104E7C00F5F3FAF300F405F40AF410F415F41AF44B
:104E8C0020F425F42AF42FF435F43AF43FF444F4E6
:104E9C004AF44FF454F459F45FF464F469F46EF486
:104EAC0074F479F47EF483F488F48EF493F498F427
:104EBC009DF4A2F4A7F4ADF4B2F4B7F4BCF4C1F4CD
:104ECC00C6F4CCF4D1F4D6F4DBF4E0F4E5F4EAF473
:104EDC00EFF4F5F4FAF4FFF404F509F50EF513F517
:104EEC0018F51DF522F527F52CF532F537F53CF5BF
:104EFC0041F546F54BF550F555F55AF55FF564F56A
:104F0C0069F56EF573F578F57DF582F587F58CF519
:104F1C0091F596F59BF5A0F5A5F5AAF5AEF5B3F5CB
:104F2C00B8F5BDF5C2F5C7F5CCF5D1F5D6F5DBF581
:104F3C00E0F5E5F5E9F5EEF5F3F5F8F5FDF502F636
:104F4C0007F60CF610F615F61AF61FF624F629F6E7
:104F5C002DF632F637F63CF641F646F64AF64FF6A3
:104F6C0054F659F65DF662F667F66CF671F675F660
:104F7C007AF67FF684F688F68DF692F697F69BF61F
:104F8C00A0F6A5F6A9F6AEF6B3F6B8F6BCF6C1F6E1
:104F9C00C6F6CAF6CFF6D4F6D8F6DDF6E2F6E6F6A5
:104FAC00EBF6F0F6F4F6F9F6FEF602F707F70BF768
:104FBC0010F715F719F71EF722F727F72CF730F72C
:104FCC0035F739F73EF742F747F74CF750F755F7F7
:104FDC0059F75EF762F767F76BF770F774F779F7C5
:104FEC007DF782F786F78BF78FF794F798F79DF795
:104FFC00A1F7A6F7AAF7AFF7B3F7B8F7BCF7C0F766
:10500C00C5F7C9F7CEF7D2F7D7F7DBF7DFF7E4F739
:10501C00E8F7EDF7F1F7F5F7FAF7FEF703F807F80D
:10502C000BF810F814F818F81DF821F825F82AF8E0
:10503C002EF832F837F83BF83FF844F848F84CF8BB
:10504C0050F855F859F85DF862F866F86AF86EF899
:10505C0073F877F87BF87FF884F888F88CF890F878
:10506C0094F899F89DF8A1F8A5F8A9F8AEF8B2F85B
:10507C00B6F8BAF8BEF8C3F8C7F8CBF8CFF8D3F83F
:10508C00D7F8DBF8E0F8E4F8E8F8ECF8F0F8F4F826
:10509C00F8F8FCF801F905F909F90DF911F915F908
:1050AC0019F91DF921F925F929F92DF931F935F9F4
:1050BC0039F93DF941F945F94AF94EF952F956F9E0
:1050CC005AF95EF962F966F969F96DF971F975F9D0
:1050DC0079F97DF981F985F989F98DF991F995F9C4
:1050EC0099F99DF9A1F9A5F9A9F9ACF9B0F9B4F9B7
:1050FC00B8F9BCF9C0F9C4F9C8F9CCF9CFF9D3F9AE
:10510C00D7F9DBF9DFF9E3F9E6F9EAF9EEF9F2F9A7
:10511C00F6F9FAF9FDF901FA05FA09FA0DFA10FA9D
:10512C0014FA18FA1CFA1FFA23FA27FA2BFA2EFA99
:10513C0032FA36FA3AFA3DFA41FA45FA49FA4CFA99
:10514C0050FA54FA57FA5BFA5FFA62FA66FA6AFA9C
:10515C006DFA71FA75FA78FA7CFA80FA83FA87FAA2
:10516C008BFA8EFA92FA95FA99FA9DFAA0FAA4FAA9
:10517C00A7FAABFAAFFAB2FAB6FAB9FABDFAC1FAB3
:10518C00C4FAC8FACBFACFFAD2FAD6FAD9FADDFABF
:10519C00E0FAE4FAE7FAEBFAEEFAF2FAF5FAF9FACF
:1051AC00FCFA00FB03FB07FB0AFB0EFB11FB15FBD8
:1051BC0018FB1CFB1FFB22FB26FB29FB2DFB30FBEA
:1051CC0033FB37FB3AFB3EFB41FB44FB48FB4BFB01
:1051DC004FFB52FB55FB59FB5CFB5FFB63FB66FB18
:1051EC0069FB6DFB70FB73FB77FB7AFB7DFB81FB33
:1051FC0084FB87FB8AFB8EFB91FB94FB98FB9BFB50
:10520C009EFBA1FBA5FBA8FBABFBAEFBB2FBB5FB6E
:10521C00B8FBBBFBBEFBC2FBC5FBC8FBCBFBCEFB91
:10522C00D2FBD5FBD8FBDBFBDEFBE2FBE5FBE8FBB3
:10523C00EBFBEEFBF1FBF4FBF8FBFBFBFEFB01FCD9
:10524C0004FC07FC0AFC0DFC10FC14FC17FC1AFCFB
:10525C001DFC20FC23FC26FC29FC2CFC2FFC32FC26
:10526C0035FC38FC3BFC3EFC41FC44FC47FC4AFC56
:10527C004DFC50FC53FC56FC59FC5CFC5FFC62FC86
:10528C0065FC68FC6BFC6EFC71FC74FC77FC7AFCB6
:10529C007DFC80FC82FC85FC88FC8BFC8EFC91FCEC
:1052AC0094FC97FC9AFC9DFC9FFCA2FCA5FCA8FC22
:1052BC00ABFCAEFCB0FCB3FCB6FCB9FCBCFCBFFC5C
:1052CC00C1FCC4FCC7FCCAFCCDFCCFFCD2FCD5FC99
:1052DC00D8FCDBFCDDFCE0FCE3FCE6FCE8FCEBFCD6
:1052EC00EEFCF1FCF3FCF6FCF9FCFBFCFEFC01FD16
:1052FC0004FD06FD09FD0CFD0EFD11FD14FD16FD52
:10530C0019FD1CFD1EFD21FD24FD26FD29FD2BFD97
:10531C002EFD31FD33FD36FD39FD3BFD3EFD40FDDF
:10532C0043FD45FD48FD4BFD4DFD50FD52FD55FD2A
:10533C0057FD5AFD5CFD5FFD62FD64FD67FD69FD77
:10534C006CFD6EFD71FD73FD76FD78FD7BFD7DFDC5
:10535C0080FD82FD84FD87FD89FD8CFD8EFD91FD18
:10536C0093FD96FD98FD9AFD9DFD9FFDA2FDA4FD6C
:10537C00A6FDA9FDABFDAEFDB0FDB2FDB5FDB7FDC3
:10538C00B9FDBCFDBEFDC1FDC3FDC5FDC8FDCAFD1B
:10539C00CCFDCEFDD1FDD3FDD5FDD8FDDAFDDCFD78
:1053AC00DFFDE1FDE3FDE5FDE8FDEAFDECFDEEFDD5
:1053BC00F1FDF3FDF5FDF7FDFAFDFCFDFEFD00FE34
:1053CC0002FE05FE07FE09FE0BFE0DFE10FE12FE90
:1053DC0014FE16FE18FE1AFE1DFE1FFE21FE23FEF5
:1053EC0025FE27FE29FE2CFE2EFE30FE32FE34FE5C
:1053FC0036FE38FE3AFE3CFE3EFE40FE42FE45FEC8
:10540C0047FE49FE4BFE4DFE4FFE51FE53FE55FE30
:10541C0057FE59FE5BFE5DFE5FFE61FE63FE65FEA0
:10542C0067FE69FE6BFE6DFE6FFE71FE73FE75FE10
:10543C0077FE78FE7AFE7CFE7EFE80FE82FE84FE87
:10544C0086FE88FE8AFE8CFE8DFE8FFE91FE93FEFC
:10545C0095FE97FE99FE9AFE9CFE9EFEA0FEA2FE75
:10546C00A4FEA6FEA7FEA9FEABFEADFEAFFEB0FEEF
:10547C00B2FEB4FEB6FEB7FEB9FEBBFEBDFEBFFE6D
:10548C00C0FEC2FEC4FEC5FEC7FEC9FECBFECCFEEE
:10549C00CEFED0FED2FED3FED5FED7FED8FEDAFE6F
:1054AC00DCFEDDFEDFFEE1FEE2FEE4FEE6FEE7FEF4
:1054BC00E9FEEAFEECFEEEFEEFFEF1FEF3FEF4FE7C
:1054CC00F6FEF7FEF9FEFBFEFCFEFEFEFFFE01FF04
:1054DC0002FF04FF05FF07FF09FF0AFF0CFF0DFF8A
:1054EC000FFF10FF12FF13FF15FF16FF18FF19FF18
:1054FC001BFF1CFF1EFF1FFF21FF22FF23FF25FFA9
:10550C0026FF28FF29FF2BFF2CFF2EFF2FFF30FF3C
:10551C0032FF33FF35FF36FF37FF39FF3AFF3BFFD2
:10552C003DFF3EFF40FF41FF42FF44FF45FF46FF6A
:10553C0048FF49FF4AFF4CFF4DFF4EFF50FF51FF04
:10554C0052FF53FF55FF56FF57FF58FF5AFF5BFFA3
:10555C005CFF5DFF5FFF60FF61FF62FF64FF65FF43
:10556C0066FF67FF69FF6AFF6BFF6CFF6DFF6EFFE5
:10557C0070FF71FF72FF73FF74FF75FF77FF78FF89
:10558C0079FF7AFF7BFF7CFF7DFF7FFF80FF81FF30
:10559C0082FF83FF84FF85FF86FF87FF88FF89FFDB
:1055AC008AFF8CFF8DFF8EFF8FFF90FF91FF92FF84
:1055BC0093FF94FF95FF96FF97FF98FF99FF9AFF33
:1055CC009BFF9CFF9DFF9EFF9FFFA0FFA1FFA2FFE3
:1055DC00A2FFA3FFA4FFA5FFA6FFA7FFA8FFA9FF9B
:1055EC00AAFFABFFACFFADFFADFFAEFFAFFFB0FF4F
:1055FC00B1FFB2FFB3FFB4FFB4FFB5FFB6FFB7FF07
:10560C00B8FFB9FFB9FFBAFFBBFFBCFFBDFFBDFFC1
:10561C00BEFFBFFFC0FFC1FFC1FFC2FFC3FFC4FF7E
:10562C00C4FFC5FFC6FFC7FFC7FFC8FFC9FFCAFF3E
:10563C00CAFFCBFFCCFFCCFFCDFFCEFFCEFFCFFF01
:10564C00D0FFD0FFD1FFD2FFD2FFD3FFD4FFD4FFC6
:10565C00D5FFD6FFD6FFD7FFD8FFD8FFD9FFD9FF8C
:10566C00DAFFDBFFDBFFDCFFDCFFDDFFDDFFDEFF56
:10567C00DFFFDFFFE0FFE0FFE1FFE1FFE2FFE2FF22
:10568C00E3FFE3FFE4FFE4FFE5FFE5FFE6FFE6FFF2
:10569C00E7FFE7FFE8FFE8FFE9FFE9FFEAFFEAFFC2
:1056AC00EBFFEBFFEBFFECFFECFFEDFFEDFFEEFF95
:1056BC00EEFFEEFFEFFFEFFFF0FFF0FFF0FFF1FF6B
:1056CC00F1FFF1FFF2FFF2FFF3FFF3FFF3FFF4FF43
:1056DC00F4FFF4FFF5FFF5FFF5FFF5FFF6FFF6FF1E
:1056EC00F6FFF7FFF7FFF7FFF7FFF8FFF8FFF8FFFC
:1056FC00F8FFF9FFF9FFF9FFF9FFFAFFFAFFFAFFDC
:10570C00FAFFFBFFFBFFFBFFFBFFFBFFFCFFFCFFBC
:10571C00FCFFFCFFFCFFFCFFFDFFFDFFFDFFFDFFA1
:10572C00FDFFFDFFFDFFFDFFFEFFFEFFFEFFFEFF89
:10573C00FEFFFEFFFEFFFEFFFEFFFEFFFFFFFFFF73
:10574C00FFFFFFFFFFFFFFFFFFFFFFFFFFFFFFFF5D
:10575C00FFFFFFFFFFFFFFFFFFFFFFFFFFFFFFFF4D
:10576C00FFFFFFFFFFFFFFFFFFFFFFFFFFFFFFFF3D
:10577C00FFFFFFFFFFFFFEFFFEFFFEFFFEFFFEFF32
:10578C00FEFFFEFFFEFFFEFFFEFFFDFFFDFFFDFF28
:10579C00FDFFFDFFFDFFFDFFFDFFFCFFFCFFFCFF20
:1057AC00FCFFFCFFFCFFFBFFFBFFFBFFFBFFFBFF1A
:1057BC00FAFFFAFFFAFFFAFFF9FFF9FFF9FFF9FF19
:1057CC00F8FFF8FFF8FFF8FFF7FFF7FFF7FFF7FF19
:1057DC00F6FFF6FFF6FFF5FFF5FFF5FFF5FFF4FF1B
:1057EC00F4FFF4FFF3FFF3FFF3FFF2FFF2FFF1FF1F
:1057FC00F1FFF1FFF0FFF0FFF0FFEFFFEFFFEEFF27
:10580C00EEFFEEFFEDFFEDFFECFFECFFEBFFEBFF30
:10581C00EBFFEAFFEAFFE9FFE9FFE8FFE8FFE7FF3C
:10582C00E7FFE6FFE6FFE5FFE5FFE4FFE4FFE3FF4C
:10583C00E3FFE2FFE2FFE1FFE1FFE0FFE0FFDFFF5C
:10584C00DFFFDEFFDDFFDDFFDCFFDCFFDBFFDBFF6F
:10585C00DAFFD9FFD9FFD8FFD8FFD7FFD6FFD6FF85
:10586C00D5FFD4FFD4FFD3FFD2FFD2FFD1FFD0FF9F
:10587C00D0FFCFFFCEFFCEFFCDFFCCFFCCFFCBFFB9
:10588C00CAFFCAFFC9FFC8FFC7FFC7FFC6FFC5FFD6
:10589C00C4FFC4FFC3FFC2FFC1FFC1FFC0FFBFFFF6
:1058AC00BEFFBDFFBDFFBCFFBBFFBAFFB9FFB9FF19
:1058BC00B8FFB7FFB6FFB5FFB4FFB4FFB3FFB2FF3D
:1058CC00B1FFB0FFAFFFAEFFADFFADFFACFFABFF65
:1058DC00AAFFA9FFA8FFA7FFA6FFA5FFA4FFA3FF90
:1058EC00A2FFA2FFA1FFA0FF9FFF9EFF9DFF9CFFB9
:1058FC009BFF9AFF99FF98FF97FF96FF95FF94FFE8
:10590C0093FF92FF91FF90FF8FFF8EFF8DFF8CFF17
:10591C008AFF89FF88FF87FF86FF85FF84FF83FF4F
:10592C0082FF81FF80FF7FFF7DFF7CFF7BFF7AFF83
:10593C0079FF78FF77FF75FF74FF73FF72FF71FFBC
:10594C0070FF6EFF6DFF6CFF6BFF6AFF69FF67FFF7
:10595C0066FF65FF64FF62FF61FF60FF5FFF5DFF35
:10596C005CFF5BFF5AFF58FF57FF56FF55FF53FF75
:10597C0052FF51FF50FF4EFF4DFF4CFF4AFF49FFB6
:10598C0048FF46FF45FF44FF42FF41FF40FF3EFFFB
:10599C003DFF3BFF3AFF39FF37FF36FF35FF33FF43
:1059AC0032FF30FF2FFF2EFF2CFF2BFF29FF28FF8C
:1059BC0026FF25FF23FF22FF21FF1FFF1EFF1CFFD9
:1059CC001BFF19FF18FF16FF15FF13FF12FF10FF27
:1059DC000FFF0DFF0CFF0AFF09FF07FF05FF04FF78
:1059EC0002FF01FFFFFEFEFEFCFEFBFEF9FEF7FED2
:1059FC00F6FEF4FEF3FEF1FEEFFEEEFEECFEEAFE2A
:105A0C00E9FEE7FEE6FEE4FEE2FEE1FEDFFEDDFE81
:105A1C00DCFEDAFED8FED7FED5FED3FED2FED0FEDB
:105A2C00CEFECCFECBFEC9FEC7FEC5FEC4FEC2FE3A
:105A3C00C0FEBFFEBDFEBBFEB9FEB7FEB6FEB4FE99
:105A4C00B2FEB0FEAFFEADFEABFEA9FEA7FEA6FEFB
:105A5C00A4FEA2FEA0FE9EFE9CFE9AFE99FE97FE60
:105A6C0095FE93FE91FE8FFE8DFE8CFE8AFE88FEC7
:105A7C0086FE84FE82FE80FE7EFE7CFE7AFE78FE32
:105A8C0077FE75FE73FE71FE6FFE6DFE6BFE69FE9A
:105A9C0067FE65FE63FE61FE5FFE5DFE5BFE59FE0A
:105AAC0057FE55FE53FE51FE4FFE4DFE4BFE49FE7A
:105ABC0047FE45FE42FE40FE3EFE3CFE3AFE38FEF0
:105ACC0036FE34FE32FE30FE2EFE2CFE29FE27FE64
